{
  "contractName": "ABCRental",
  "abi": [
    {
      "inputs": [],
      "stateMutability": "nonpayable",
      "type": "constructor"
    },
    {
      "inputs": [
        {
          "internalType": "uint256",
          "name": "",
          "type": "uint256"
        }
      ],
      "name": "carCatalogue",
      "outputs": [
        {
          "internalType": "uint256",
          "name": "_id",
          "type": "uint256"
        },
        {
          "internalType": "uint256",
          "name": "_noOfSeaters",
          "type": "uint256"
        },
        {
          "internalType": "string",
          "name": "_carBrand",
          "type": "string"
        },
        {
          "internalType": "uint256",
          "name": "_costPerDay",
          "type": "uint256"
        },
        {
          "internalType": "enum ABCRental.CarState",
          "name": "_carState",
          "type": "uint8"
        },
        {
          "internalType": "address",
          "name": "_rentee",
          "type": "address"
        },
        {
          "internalType": "uint256",
          "name": "_damagesCost",
          "type": "uint256"
        }
      ],
      "stateMutability": "view",
      "type": "function",
      "constant": true
    },
    {
      "inputs": [],
      "name": "carCount",
      "outputs": [
        {
          "internalType": "uint256",
          "name": "",
          "type": "uint256"
        }
      ],
      "stateMutability": "view",
      "type": "function",
      "constant": true
    },
    {
      "inputs": [
        {
          "internalType": "string",
          "name": "_carBrand",
          "type": "string"
        },
        {
          "internalType": "uint256",
          "name": "_noOfSeaters",
          "type": "uint256"
        },
        {
          "internalType": "uint256",
          "name": "_costPerDay",
          "type": "uint256"
        }
      ],
      "name": "addCar",
      "outputs": [],
      "stateMutability": "nonpayable",
      "type": "function"
    },
    {
      "inputs": [
        {
          "internalType": "uint256",
          "name": "_carId",
          "type": "uint256"
        },
        {
          "internalType": "uint256",
          "name": "_noOfDays",
          "type": "uint256"
        },
        {
          "internalType": "uint256",
          "name": "_amountPaid",
          "type": "uint256"
        }
      ],
      "name": "rentCar",
      "outputs": [],
      "stateMutability": "payable",
      "type": "function",
      "payable": true
    },
    {
      "inputs": [
        {
          "internalType": "uint256",
          "name": "_carId",
          "type": "uint256"
        },
        {
          "internalType": "bool",
          "name": "_isDamaged",
          "type": "bool"
        }
      ],
      "name": "returnCar",
      "outputs": [],
      "stateMutability": "nonpayable",
      "type": "function"
    },
    {
      "inputs": [
        {
          "internalType": "uint256",
          "name": "_carId",
          "type": "uint256"
        },
        {
          "internalType": "uint256",
          "name": "_damageCost",
          "type": "uint256"
        }
      ],
      "name": "evaluateDamages",
      "outputs": [],
      "stateMutability": "nonpayable",
      "type": "function"
    },
    {
      "inputs": [
        {
          "internalType": "uint256",
          "name": "_carId",
          "type": "uint256"
        }
      ],
      "name": "repairCar",
      "outputs": [],
      "stateMutability": "nonpayable",
      "type": "function"
    },
    {
      "inputs": [],
      "name": "getAllCars",
      "outputs": [
        {
          "components": [
            {
              "internalType": "uint256",
              "name": "_id",
              "type": "uint256"
            },
            {
              "internalType": "uint256",
              "name": "_noOfSeaters",
              "type": "uint256"
            },
            {
              "internalType": "string",
              "name": "_carBrand",
              "type": "string"
            },
            {
              "internalType": "uint256",
              "name": "_costPerDay",
              "type": "uint256"
            },
            {
              "internalType": "enum ABCRental.CarState",
              "name": "_carState",
              "type": "uint8"
            },
            {
              "internalType": "address",
              "name": "_rentee",
              "type": "address"
            },
            {
              "internalType": "uint256",
              "name": "_damagesCost",
              "type": "uint256"
            }
          ],
          "internalType": "struct ABCRental.Car[]",
          "name": "",
          "type": "tuple[]"
        }
      ],
      "stateMutability": "view",
      "type": "function",
      "constant": true
    }
  ],
  "bytecode": "0x608060405234801561001057600080fd5b50336000806101000a81548173ffffffffffffffffffffffffffffffffffffffff021916908373ffffffffffffffffffffffffffffffffffffffff160217905550611e1d806100606000396000f3fe60806040526004361061007b5760003560e01c8063abfe5d571161004e578063abfe5d5714610133578063c8351be01461015e578063dae5306e14610187578063eb455f0f146101b05761007b565b8063297a1f56146100805780634192440d146100ab5780635b57838d146100c757806391e0f7d2146100f0575b600080fd5b34801561008c57600080fd5b506100956101d9565b6040516100a2919061180f565b60405180910390f35b6100c560048036038101906100c09190611352565b6101df565b005b3480156100d357600080fd5b506100ee60048036038101906100e991906112b1565b61041e565b005b3480156100fc57600080fd5b50610117600480360381019061011291906112b1565b610687565b60405161012a979695949392919061182a565b60405180910390f35b34801561013f57600080fd5b5061014861077e565b60405161015591906116cd565b60405180910390f35b34801561016a57600080fd5b506101856004803603810190610180919061124a565b610a2d565b005b34801561019357600080fd5b506101ae60048036038101906101a991906112da565b610c47565b005b3480156101bc57600080fd5b506101d760048036038101906101d29190611316565b610e95565b005b60015481565b82600154811115610225576040517f08c379a000000000000000000000000000000000000000000000000000000000815260040161021c906117ef565b60405180910390fd5b6000600281111561025f577f4e487b7100000000000000000000000000000000000000000000000000000000600052602160045260246000fd5b6002600083815260200190815260200160002060040160009054906101000a900460ff1660028111156102bb577f4e487b7100000000000000000000000000000000000000000000000000000000600052602160045260246000fd5b146102fb576040517f08c379a00000000000000000000000000000000000000000000000000000000081526004016102f2906117af565b60405180910390fd5b60026000858152602001908152602001600020600301548361031d91906119b2565b821461035e576040517f08c379a00000000000000000000000000000000000000000000000000000000081526004016103559061174f565b60405180910390fd5b60016002600086815260200190815260200160002060040160006101000a81548160ff021916908360028111156103be577f4e487b7100000000000000000000000000000000000000000000000000000000600052602160045260246000fd5b0217905550336002600086815260200190815260200160002060040160016101000a81548173ffffffffffffffffffffffffffffffffffffffff021916908373ffffffffffffffffffffffffffffffffffffffff16021790555050505050565b60008054906101000a900473ffffffffffffffffffffffffffffffffffffffff1673ffffffffffffffffffffffffffffffffffffffff163373ffffffffffffffffffffffffffffffffffffffff16146104ac576040517f08c379a00000000000000000000000000000000000000000000000000000000081526004016104a39061178f565b60405180910390fd5b6001548111156104f1576040517f08c379a00000000000000000000000000000000000000000000000000000000081526004016104e8906117ef565b60405180910390fd5b60028081111561052a577f4e487b7100000000000000000000000000000000000000000000000000000000600052602160045260246000fd5b6002600083815260200190815260200160002060040160009054906101000a900460ff166002811115610586577f4e487b7100000000000000000000000000000000000000000000000000000000600052602160045260246000fd5b146105c6576040517f08c379a00000000000000000000000000000000000000000000000000000000081526004016105bd906116ef565b60405180910390fd5b600060026000838152602001908152602001600020600501541461061f576040517f08c379a0000000000000000000000000000000000000000000000000000000008152600401610616906117cf565b60405180910390fd5b60006002600083815260200190815260200160002060040160006101000a81548160ff0219169083600281111561067f577f4e487b7100000000000000000000000000000000000000000000000000000000600052602160045260246000fd5b021790555050565b60026020528060005260406000206000915090508060000154908060010154908060020180546106b690611abb565b80601f01602080910402602001604051908101604052809291908181526020018280546106e290611abb565b801561072f5780601f106107045761010080835404028352916020019161072f565b820191906000526020600020905b81548152906001019060200180831161071257829003601f168201915b5050505050908060030154908060040160009054906101000a900460ff16908060040160019054906101000a900473ffffffffffffffffffffffffffffffffffffffff16908060050154905087565b6060600060015467ffffffffffffffff8111156107c4577f4e487b7100000000000000000000000000000000000000000000000000000000600052604160045260246000fd5b6040519080825280602002602001820160405280156107fd57816020015b6107ea61108a565b8152602001906001900390816107e25790505b50905060005b600154811015610a25576002600060018361081e919061195c565b81526020019081526020016000206040518060e0016040529081600082015481526020016001820154815260200160028201805461085b90611abb565b80601f016020809104026020016040519081016040528092919081815260200182805461088790611abb565b80156108d45780601f106108a9576101008083540402835291602001916108d4565b820191906000526020600020905b8154815290600101906020018083116108b757829003601f168201915b50505050508152602001600382015481526020016004820160009054906101000a900460ff166002811115610932577f4e487b7100000000000000000000000000000000000000000000000000000000600052602160045260246000fd5b600281111561096a577f4e487b7100000000000000000000000000000000000000000000000000000000600052602160045260246000fd5b81526020016004820160019054906101000a900473ffffffffffffffffffffffffffffffffffffffff1673ffffffffffffffffffffffffffffffffffffffff1673ffffffffffffffffffffffffffffffffffffffff168152602001600582015481525050828281518110610a07577f4e487b7100000000000000000000000000000000000000000000000000000000600052603260045260246000fd5b60200260200101819052508080610a1d90611b1e565b915050610803565b508091505090565b60008054906101000a900473ffffffffffffffffffffffffffffffffffffffff1673ffffffffffffffffffffffffffffffffffffffff163373ffffffffffffffffffffffffffffffffffffffff1614610abb576040517f08c379a0000000000000000000000000000000000000000000000000000000008152600401610ab29061178f565b60405180910390fd5b610ac3611070565b6040518060e00160405280600154815260200183815260200184815260200182815260200160006002811115610b22577f4e487b7100000000000000000000000000000000000000000000000000000000600052602160045260246000fd5b81526020013373ffffffffffffffffffffffffffffffffffffffff168152602001600081525060026000600154815260200190815260200160002060008201518160000155602082015181600101556040820151816002019080519060200190610b8d929190611115565b506060820151816003015560808201518160040160006101000a81548160ff02191690836002811115610be9577f4e487b7100000000000000000000000000000000000000000000000000000000600052602160045260246000fd5b021790555060a08201518160040160016101000a81548173ffffffffffffffffffffffffffffffffffffffff021916908373ffffffffffffffffffffffffffffffffffffffff16021790555060c08201518160050155905050505050565b813381600260008481526020019081526020016000206000015414610ca1576040517f08c379a0000000000000000000000000000000000000000000000000000000008152600401610c989061170f565b60405180910390fd5b8073ffffffffffffffffffffffffffffffffffffffff166002600084815260200190815260200160002060040160019054906101000a900473ffffffffffffffffffffffffffffffffffffffff1673ffffffffffffffffffffffffffffffffffffffff1614610d45576040517f08c379a0000000000000000000000000000000000000000000000000000000008152600401610d3c9061176f565b60405180910390fd5b8215610db457600280600086815260200190815260200160002060040160006101000a81548160ff02191690836002811115610daa577f4e487b7100000000000000000000000000000000000000000000000000000000600052602160045260246000fd5b0217905550610e8f565b60006002600086815260200190815260200160002060040160006101000a81548160ff02191690836002811115610e14577f4e487b7100000000000000000000000000000000000000000000000000000000600052602160045260246000fd5b021790555060008054906101000a900473ffffffffffffffffffffffffffffffffffffffff166002600086815260200190815260200160002060040160016101000a81548173ffffffffffffffffffffffffffffffffffffffff021916908373ffffffffffffffffffffffffffffffffffffffff1602179055505b50505050565b60008054906101000a900473ffffffffffffffffffffffffffffffffffffffff1673ffffffffffffffffffffffffffffffffffffffff163373ffffffffffffffffffffffffffffffffffffffff1614610f23576040517f08c379a0000000000000000000000000000000000000000000000000000000008152600401610f1a9061178f565b60405180910390fd5b600280811115610f5c577f4e487b7100000000000000000000000000000000000000000000000000000000600052602160045260246000fd5b6002600084815260200190815260200160002060040160009054906101000a900460ff166002811115610fb8577f4e487b7100000000000000000000000000000000000000000000000000000000600052602160045260246000fd5b14610ff8576040517f08c379a0000000000000000000000000000000000000000000000000000000008152600401610fef906116ef565b60405180910390fd5b6000600260008481526020019081526020016000206005015414611051576040517f08c379a00000000000000000000000000000000000000000000000000000000081526004016110489061172f565b60405180910390fd5b8060026000848152602001908152602001600020600501819055505050565b6001600081548092919061108390611b1e565b9190505550565b6040518060e0016040528060008152602001600081526020016060815260200160008152602001600060028111156110eb577f4e487b7100000000000000000000000000000000000000000000000000000000600052602160045260246000fd5b8152602001600073ffffffffffffffffffffffffffffffffffffffff168152602001600081525090565b82805461112190611abb565b90600052602060002090601f016020900481019282611143576000855561118a565b82601f1061115c57805160ff191683800117855561118a565b8280016001018555821561118a579182015b8281111561118957825182559160200191906001019061116e565b5b509050611197919061119b565b5090565b5b808211156111b457600081600090555060010161119c565b5090565b60006111cb6111c6846118c5565b6118a0565b9050828152602081018484840111156111e357600080fd5b6111ee848285611a79565b509392505050565b60008135905061120581611db9565b92915050565b600082601f83011261121c57600080fd5b813561122c8482602086016111b8565b91505092915050565b60008135905061124481611dd0565b92915050565b60008060006060848603121561125f57600080fd5b600084013567ffffffffffffffff81111561127957600080fd5b6112858682870161120b565b935050602061129686828701611235565b92505060406112a786828701611235565b9150509250925092565b6000602082840312156112c357600080fd5b60006112d184828501611235565b91505092915050565b600080604083850312156112ed57600080fd5b60006112fb85828601611235565b925050602061130c858286016111f6565b9150509250929050565b6000806040838503121561132957600080fd5b600061133785828601611235565b925050602061134885828601611235565b9150509250929050565b60008060006060848603121561136757600080fd5b600061137586828701611235565b935050602061138686828701611235565b925050604061139786828701611235565b9150509250925092565b60006113ad8383611613565b905092915050565b6113be81611a0c565b82525050565b6113cd81611a0c565b82525050565b60006113de82611906565b6113e88185611929565b9350836020820285016113fa856118f6565b8060005b85811015611436578484038952815161141785826113a1565b94506114228361191c565b925060208a019950506001810190506113fe565b50829750879550505050505092915050565b61145181611a67565b82525050565b61146081611a67565b82525050565b600061147182611911565b61147b818561193a565b935061148b818560208601611a88565b61149481611c23565b840191505092915050565b60006114aa82611911565b6114b4818561194b565b93506114c4818560208601611a88565b6114cd81611c23565b840191505092915050565b60006114e560138361194b565b91506114f082611c34565b602082019050919050565b600061150860178361194b565b915061151382611c5d565b602082019050919050565b600061152b601a8361194b565b915061153682611c86565b602082019050919050565b600061154e60128361194b565b915061155982611caf565b602082019050919050565b6000611571600f8361194b565b915061157c82611cd8565b602082019050919050565b600061159460138361194b565b915061159f82611d01565b602082019050919050565b60006115b760108361194b565b91506115c282611d2a565b602082019050919050565b60006115da60118361194b565b91506115e582611d53565b602082019050919050565b60006115fd600f8361194b565b915061160882611d7c565b602082019050919050565b600060e08301600083015161162b60008601826116af565b50602083015161163e60208601826116af565b50604083015184820360408601526116568282611466565b915050606083015161166b60608601826116af565b50608083015161167e6080860182611448565b5060a083015161169160a08601826113b5565b5060c08301516116a460c08601826116af565b508091505092915050565b6116b881611a5d565b82525050565b6116c781611a5d565b82525050565b600060208201905081810360008301526116e781846113d3565b905092915050565b60006020820190508181036000830152611708816114d8565b9050919050565b60006020820190508181036000830152611728816114fb565b9050919050565b600060208201905081810360008301526117488161151e565b9050919050565b6000602082019050818103600083015261176881611541565b9050919050565b6000602082019050818103600083015261178881611564565b9050919050565b600060208201905081810360008301526117a881611587565b9050919050565b600060208201905081810360008301526117c8816115aa565b9050919050565b600060208201905081810360008301526117e8816115cd565b9050919050565b60006020820190508181036000830152611808816115f0565b9050919050565b600060208201905061182460008301846116be565b92915050565b600060e08201905061183f600083018a6116be565b61184c60208301896116be565b818103604083015261185e818861149f565b905061186d60608301876116be565b61187a6080830186611457565b61188760a08301856113c4565b61189460c08301846116be565b98975050505050505050565b60006118aa6118bb565b90506118b68282611aed565b919050565b6000604051905090565b600067ffffffffffffffff8211156118e0576118df611bf4565b5b6118e982611c23565b9050602081019050919050565b6000819050602082019050919050565b600081519050919050565b600081519050919050565b6000602082019050919050565b600082825260208201905092915050565b600082825260208201905092915050565b600082825260208201905092915050565b600061196782611a5d565b915061197283611a5d565b9250827fffffffffffffffffffffffffffffffffffffffffffffffffffffffffffffffff038211156119a7576119a6611b67565b5b828201905092915050565b60006119bd82611a5d565b91506119c883611a5d565b9250817fffffffffffffffffffffffffffffffffffffffffffffffffffffffffffffffff0483118215151615611a0157611a00611b67565b5b828202905092915050565b6000611a1782611a3d565b9050919050565b60008115159050919050565b6000819050611a3882611da5565b919050565b600073ffffffffffffffffffffffffffffffffffffffff82169050919050565b6000819050919050565b6000611a7282611a2a565b9050919050565b82818337600083830152505050565b60005b83811015611aa6578082015181840152602081019050611a8b565b83811115611ab5576000848401525b50505050565b60006002820490506001821680611ad357607f821691505b60208210811415611ae757611ae6611bc5565b5b50919050565b611af682611c23565b810181811067ffffffffffffffff82111715611b1557611b14611bf4565b5b80604052505050565b6000611b2982611a5d565b91507fffffffffffffffffffffffffffffffffffffffffffffffffffffffffffffffff821415611b5c57611b5b611b67565b5b600182019050919050565b7f4e487b7100000000000000000000000000000000000000000000000000000000600052601160045260246000fd5b7f4e487b7100000000000000000000000000000000000000000000000000000000600052602160045260246000fd5b7f4e487b7100000000000000000000000000000000000000000000000000000000600052602260045260246000fd5b7f4e487b7100000000000000000000000000000000000000000000000000000000600052604160045260246000fd5b6000601f19601f8301169050919050565b7f434152204953204e4f542044414d414745442100000000000000000000000000600082015250565b7f494e434f5252454354204341522052455455524e454421000000000000000000600082015250565b7f44414d4147455320414c5245414459204556414c554154454421000000000000600082015250565b7f494e434f5252454354205041594d454e54210000000000000000000000000000600082015250565b7f57524f4e4720435553544f4d4552210000000000000000000000000000000000600082015250565b7f4e4f5420434f4e5452414354204f574e45522100000000000000000000000000600082015250565b7f43415220554e415641494c41424c452100000000000000000000000000000000600082015250565b7f44414d41474553204e4f54205041494421000000000000000000000000000000600082015250565b7f494e56414c494420434152204944210000000000000000000000000000000000600082015250565b60038110611db657611db5611b96565b5b50565b611dc281611a1e565b8114611dcd57600080fd5b50565b611dd981611a5d565b8114611de457600080fd5b5056fea26469706673582212207f417a5a7b97619ba4c274347833c791f568d861c23b286b2d67f5ad5e6957fa64736f6c63430008010033",
  "immutableReferences": {},
  "source": "// SPDX-License-Identifier: GPL-3.0\npragma solidity >= 0.7.0 < 0.9.0;\n\ncontract ABCRental {\n\n    enum CarState { Available, Rented, Damaged }\n    address ABCOwner; \n    uint public carCount;\n    mapping (uint => Car) public carCatalogue;\n\n    struct Car {\n        uint _id;\n        uint _noOfSeaters;\n        string _carBrand;\n        uint _costPerDay;\n        CarState _carState;\n        address _rentee;\n        uint _damagesCost;\n    }\n\n    constructor() {\n        ABCOwner = msg.sender;\n    }\n\n    modifier onlyOwner() {\n        require(msg.sender == ABCOwner, \"NOT CONTRACT OWNER!\");\n        _;\n    }\n\n    modifier checkCarAvailability(uint _carId) {\n        require(_carId <= carCount, \"INVALID CAR ID!\");\n        require(carCatalogue[_carId]._carState == CarState.Available, \"CAR UNAVAILABLE!\");\n        _;\n    }\n\n    modifier checkCarDetails(uint _carId, address _customerId) {\n        require(carCatalogue[_carId]._id == _carId, \"INCORRECT CAR RETURNED!\");\n        require(carCatalogue[_carId]._rentee == _customerId, \"WRONG CUSTOMER!\");\n        _;\n    }\n\n    modifier checkDamages(uint _carId, uint _damageFees, address _rentee) {\n        require(_carId <= carCount, \"INVALID CAR ID!\");\n        require(carCatalogue[_carId]._carState == CarState.Damaged, \"CAR IS NOT DAMAGED!\");\n        require(carCatalogue[_carId]._damagesCost > 0, \"DAMAGE NOT EVALUATED YET!\");\n        require(carCatalogue[_carId]._damagesCost == _damageFees, \"INCORRECT AMOUNT PAID!\");\n        require(carCatalogue[_carId]._rentee == _rentee, \"WRONG RENTEE\");\n        _;\n    }\n\n    function addCar(string memory _carBrand, uint _noOfSeaters, uint _costPerDay) \n        public onlyOwner {\n        incrementCarCount();\n        carCatalogue[carCount] = Car(carCount, _noOfSeaters, _carBrand, _costPerDay, CarState.Available, msg.sender, 0);\n    } \n\n    function rentCar(uint _carId, uint _noOfDays, uint _amountPaid) payable\n        public checkCarAvailability(_carId) {\n        require(_amountPaid == (_noOfDays * carCatalogue[_carId]._costPerDay), \"INCORRECT PAYMENT!\");\n        carCatalogue[_carId]._carState = CarState.Rented;\n        carCatalogue[_carId]._rentee = msg.sender;\n    }\n\n    function returnCar(uint _carId, bool _isDamaged)\n        public checkCarDetails(_carId, msg.sender) {\n        if(_isDamaged) {\n            carCatalogue[_carId]._carState = CarState.Damaged;\n        } else {\n            carCatalogue[_carId]._carState = CarState.Available;\n            carCatalogue[_carId]._rentee = ABCOwner;\n        }\n    }\n\n //   function payDamages(uint _carId) payable\n //       public checkDamages(_carId, msg.value, msg.sender) {\n //       ABCOwner.transfer(msg.value);\n //       carCatalogue[_carId]._damagesCost = 0;\n //       carCatalogue[_carId]._rentee = ABCOwner;\n //   }\n\n    function evaluateDamages(uint _carId, uint _damageCost) \n        public onlyOwner {\n        require(carCatalogue[_carId]._carState == CarState.Damaged, \"CAR IS NOT DAMAGED!\");\n        require(carCatalogue[_carId]._damagesCost == 0, \"DAMAGES ALREADY EVALUATED!\");\n        carCatalogue[_carId]._damagesCost = _damageCost;\n    }\n\n    function repairCar(uint _carId) \n        public onlyOwner {\n        require(_carId <= carCount, \"INVALID CAR ID!\");\n        require(carCatalogue[_carId]._carState == CarState.Damaged, \"CAR IS NOT DAMAGED!\");\n        require(carCatalogue[_carId]._damagesCost == 0, \"DAMAGES NOT PAID!\");\n        carCatalogue[_carId]._carState = CarState.Available;\n    }\n\n    function incrementCarCount() internal {\n        carCount++;\n    }\n\n    function getAllCars() public view returns (Car[] memory){\n        Car[] memory ret = new Car[](carCount);\n        for (uint i = 0; i < carCount; i++) {\n            ret[i] = carCatalogue[i+1];\n        }\n        return ret;\n    }\n}",
  "sourcePath": "/Users/hozhenghan/Desktop/CI6236 projects/level2/microfinance/blockchain/contracts/ABCRental.sol",
  "compiler": {
    "name": "solc",
    "version": "0.8.1+commit.df193b15.Emscripten.clang"
  },
  "schemaVersion": "3.4.6",
  "updatedAt": "2022-03-25T11:09:40.931Z",
  "networkType": "ethereum",
  "devdoc": {
    "kind": "dev",
    "methods": {},
    "version": 1
  },
  "userdoc": {
    "kind": "user",
    "methods": {},
    "version": 1
  }
}