{
  "contractName": "BankLoan",
  "abi": [
    {
      "inputs": [
        {
          "internalType": "address",
          "name": "_identitySC",
          "type": "address"
        }
      ],
      "stateMutability": "nonpayable",
      "type": "constructor"
    },
    {
      "anonymous": false,
      "inputs": [
        {
          "indexed": false,
          "internalType": "uint256",
          "name": "id",
          "type": "uint256"
        },
        {
          "indexed": false,
          "internalType": "uint256",
          "name": "amount",
          "type": "uint256"
        },
        {
          "indexed": false,
          "internalType": "uint256",
          "name": "months",
          "type": "uint256"
        },
        {
          "indexed": false,
          "internalType": "uint256",
          "name": "interest",
          "type": "uint256"
        },
        {
          "indexed": false,
          "internalType": "string",
          "name": "planId",
          "type": "string"
        },
        {
          "indexed": false,
          "internalType": "enum BankLoan.LoanState",
          "name": "state",
          "type": "uint8"
        },
        {
          "indexed": false,
          "internalType": "address",
          "name": "broker",
          "type": "address"
        },
        {
          "indexed": false,
          "internalType": "address",
          "name": "borrower",
          "type": "address"
        },
        {
          "indexed": false,
          "internalType": "uint256",
          "name": "brokerFee",
          "type": "uint256"
        },
        {
          "indexed": false,
          "internalType": "uint256",
          "name": "insuranceFee",
          "type": "uint256"
        },
        {
          "indexed": false,
          "internalType": "address",
          "name": "insurance",
          "type": "address"
        },
        {
          "indexed": false,
          "internalType": "uint256",
          "name": "insurancePolicyId",
          "type": "uint256"
        }
      ],
      "name": "loanRequest",
      "type": "event"
    },
    {
      "inputs": [
        {
          "internalType": "uint256",
          "name": "_amount",
          "type": "uint256"
        },
        {
          "internalType": "uint256",
          "name": "_months",
          "type": "uint256"
        },
        {
          "internalType": "uint256",
          "name": "_interest",
          "type": "uint256"
        },
        {
          "internalType": "string",
          "name": "_planId",
          "type": "string"
        },
        {
          "internalType": "address",
          "name": "_borrower",
          "type": "address"
        },
        {
          "internalType": "uint256",
          "name": "_brokerFee",
          "type": "uint256"
        }
      ],
      "name": "applyLoan",
      "outputs": [],
      "stateMutability": "nonpayable",
      "type": "function"
    },
    {
      "inputs": [
        {
          "internalType": "uint256",
          "name": "_loanId",
          "type": "uint256"
        },
        {
          "internalType": "address",
          "name": "_insurance",
          "type": "address"
        },
        {
          "internalType": "uint256",
          "name": "_insuranceFee",
          "type": "uint256"
        },
        {
          "internalType": "uint256",
          "name": "_insurancePolicyId",
          "type": "uint256"
        }
      ],
      "name": "addInsurance",
      "outputs": [],
      "stateMutability": "nonpayable",
      "type": "function"
    },
    {
      "inputs": [
        {
          "internalType": "uint256",
          "name": "_loanId",
          "type": "uint256"
        }
      ],
      "name": "insuranceApproved",
      "outputs": [],
      "stateMutability": "nonpayable",
      "type": "function"
    },
    {
      "inputs": [
        {
          "internalType": "uint256",
          "name": "_loanId",
          "type": "uint256"
        }
      ],
      "name": "insuranceRejected",
      "outputs": [],
      "stateMutability": "nonpayable",
      "type": "function"
    },
    {
      "inputs": [
        {
          "internalType": "uint256",
          "name": "_loanId",
          "type": "uint256"
        }
      ],
      "name": "signByBorrower",
      "outputs": [],
      "stateMutability": "nonpayable",
      "type": "function"
    },
    {
      "inputs": [
        {
          "internalType": "uint256",
          "name": "_loanId",
          "type": "uint256"
        }
      ],
      "name": "approveLoan",
      "outputs": [],
      "stateMutability": "nonpayable",
      "type": "function"
    },
    {
      "inputs": [
        {
          "internalType": "uint256",
          "name": "_loanId",
          "type": "uint256"
        }
      ],
      "name": "rejectLoan",
      "outputs": [],
      "stateMutability": "nonpayable",
      "type": "function"
    },
    {
      "inputs": [
        {
          "internalType": "uint256",
          "name": "_loanId",
          "type": "uint256"
        }
      ],
      "name": "confirmTokenTrasferToInsurance",
      "outputs": [],
      "stateMutability": "nonpayable",
      "type": "function"
    },
    {
      "inputs": [
        {
          "internalType": "uint256",
          "name": "_loanId",
          "type": "uint256"
        }
      ],
      "name": "confirmTokenTrasferToBroker",
      "outputs": [],
      "stateMutability": "nonpayable",
      "type": "function"
    },
    {
      "inputs": [
        {
          "internalType": "uint256",
          "name": "_loanId",
          "type": "uint256"
        }
      ],
      "name": "confirmTokenTrasferToBorrower",
      "outputs": [],
      "stateMutability": "nonpayable",
      "type": "function"
    },
    {
      "inputs": [
        {
          "internalType": "uint256",
          "name": "_loanId",
          "type": "uint256"
        }
      ],
      "name": "closeLoan",
      "outputs": [],
      "stateMutability": "nonpayable",
      "type": "function"
    },
    {
      "inputs": [
        {
          "internalType": "uint256",
          "name": "_loanId",
          "type": "uint256"
        }
      ],
      "name": "markAsDefaulted",
      "outputs": [],
      "stateMutability": "nonpayable",
      "type": "function"
    },
    {
      "inputs": [
        {
          "internalType": "uint256",
          "name": "_loanId",
          "type": "uint256"
        }
      ],
      "name": "requestClaim",
      "outputs": [],
      "stateMutability": "nonpayable",
      "type": "function"
    },
    {
      "inputs": [
        {
          "internalType": "uint256",
          "name": "_loanId",
          "type": "uint256"
        }
      ],
      "name": "confirmRecivingOfClaim",
      "outputs": [],
      "stateMutability": "nonpayable",
      "type": "function"
    },
    {
      "inputs": [
        {
          "internalType": "uint256",
          "name": "_loanId",
          "type": "uint256"
        }
      ],
      "name": "viewLoan",
      "outputs": [
        {
          "components": [
            {
              "internalType": "uint256",
              "name": "id",
              "type": "uint256"
            },
            {
              "internalType": "uint256",
              "name": "amount",
              "type": "uint256"
            },
            {
              "internalType": "uint256",
              "name": "months",
              "type": "uint256"
            },
            {
              "internalType": "uint256",
              "name": "interest",
              "type": "uint256"
            },
            {
              "internalType": "string",
              "name": "planId",
              "type": "string"
            },
            {
              "internalType": "enum BankLoan.LoanState",
              "name": "state",
              "type": "uint8"
            },
            {
              "internalType": "address",
              "name": "broker",
              "type": "address"
            },
            {
              "internalType": "address",
              "name": "borrower",
              "type": "address"
            },
            {
              "internalType": "uint256",
              "name": "brokerFee",
              "type": "uint256"
            },
            {
              "internalType": "uint256",
              "name": "insuranceFee",
              "type": "uint256"
            },
            {
              "internalType": "address",
              "name": "insurance",
              "type": "address"
            },
            {
              "internalType": "uint256",
              "name": "insurancePolicyId",
              "type": "uint256"
            }
          ],
          "internalType": "struct BankLoan.Loan",
          "name": "loan",
          "type": "tuple"
        }
      ],
      "stateMutability": "view",
      "type": "function",
      "constant": true
    },
    {
      "inputs": [],
      "name": "getLoans",
      "outputs": [
        {
          "components": [
            {
              "internalType": "uint256",
              "name": "id",
              "type": "uint256"
            },
            {
              "internalType": "uint256",
              "name": "amount",
              "type": "uint256"
            },
            {
              "internalType": "uint256",
              "name": "months",
              "type": "uint256"
            },
            {
              "internalType": "uint256",
              "name": "interest",
              "type": "uint256"
            },
            {
              "internalType": "string",
              "name": "planId",
              "type": "string"
            },
            {
              "internalType": "enum BankLoan.LoanState",
              "name": "state",
              "type": "uint8"
            },
            {
              "internalType": "address",
              "name": "broker",
              "type": "address"
            },
            {
              "internalType": "address",
              "name": "borrower",
              "type": "address"
            },
            {
              "internalType": "uint256",
              "name": "brokerFee",
              "type": "uint256"
            },
            {
              "internalType": "uint256",
              "name": "insuranceFee",
              "type": "uint256"
            },
            {
              "internalType": "address",
              "name": "insurance",
              "type": "address"
            },
            {
              "internalType": "uint256",
              "name": "insurancePolicyId",
              "type": "uint256"
            }
          ],
          "internalType": "struct BankLoan.Loan[]",
          "name": "",
          "type": "tuple[]"
        }
      ],
      "stateMutability": "view",
      "type": "function",
      "constant": true
    }
  ],
  "bytecode": "0x60806040523480156200001157600080fd5b5060405162004d4738038062004d478339818101604052810190620000379190620000d6565b336000806101000a81548173ffffffffffffffffffffffffffffffffffffffff021916908373ffffffffffffffffffffffffffffffffffffffff16021790555080600160006101000a81548173ffffffffffffffffffffffffffffffffffffffff021916908373ffffffffffffffffffffffffffffffffffffffff1602179055505062000150565b600081519050620000d08162000136565b92915050565b600060208284031215620000e957600080fd5b6000620000f984828501620000bf565b91505092915050565b60006200010f8262000116565b9050919050565b600073ffffffffffffffffffffffffffffffffffffffff82169050919050565b620001418162000102565b81146200014d57600080fd5b50565b614be780620001606000396000f3fe608060405234801561001057600080fd5b50600436106101005760003560e01c8063a874302211610097578063d028aa6211610066578063d028aa6214610257578063d05951a014610287578063d6e67ffb146102a3578063e00b288a146102bf57610100565b8063a8743022146101e5578063aa4a871114610201578063aadc1ac11461021f578063c99771f91461023b57610100565b80635d29cb98116100d35780635d29cb98146101755780637e5c0a08146101915780638e4e1bee146101ad5780639781503f146101c957610100565b80630bf457ee146101055780631088ad071461012157806345abf9c71461013d57806347a9155714610159575b600080fd5b61011f600480360381019061011a919061419c565b6102db565b005b61013b6004803603810190610136919061419c565b61063e565b005b610157600480360381019061015291906141c5565b610b4d565b005b610173600480360381019061016e919061419c565b6111a5565b005b61018f600480360381019061018a919061419c565b611508565b005b6101ab60048036038101906101a6919061419c565b61186b565b005b6101c760048036038101906101c2919061419c565b611ca5565b005b6101e360048036038101906101de9190614228565b612008565b005b6101ff60048036038101906101fa919061419c565b612421565b005b610209612784565b6040516102169190614687565b60405180910390f35b6102396004803603810190610234919061419c565b612a45565b005b6102556004803603810190610250919061419c565b612da8565b005b610271600480360381019061026c919061419c565b6131e3565b60405161027e91906146e9565b60405180910390f35b6102a1600480360381019061029c919061419c565b613525565b005b6102bd60048036038101906102b8919061419c565b613888565b005b6102d960048036038101906102d4919061419c565b613beb565b005b60008054906101000a900473ffffffffffffffffffffffffffffffffffffffff1673ffffffffffffffffffffffffffffffffffffffff163373ffffffffffffffffffffffffffffffffffffffff161461033357600080fd5b806000805b6002805490508110156103b4578260028281548110610380577f4e487b7100000000000000000000000000000000000000000000000000000000600052603260045260246000fd5b90600052602060002090600b02016000015414156103a157600191506103b4565b80806103ac906149f0565b915050610338565b50806103bf57600080fd5b8260056000805b60028054905081101561051557836002828154811061040e577f4e487b7100000000000000000000000000000000000000000000000000000000600052603260045260246000fd5b90600052602060002090600b0201600001541480156104f4575082600d811115610461577f4e487b7100000000000000000000000000000000000000000000000000000000600052602160045260246000fd5b6002828154811061049b577f4e487b7100000000000000000000000000000000000000000000000000000000600052603260045260246000fd5b90600052602060002090600b020160050160009054906101000a900460ff16600d8111156104f2577f4e487b7100000000000000000000000000000000000000000000000000000000600052602160045260246000fd5b145b156105025760019150610515565b808061050d906149f0565b9150506103c6565b508061052057600080fd5b60005b60028054905081101561063557866002828154811061056b577f4e487b7100000000000000000000000000000000000000000000000000000000600052603260045260246000fd5b90600052602060002090600b0201600001541415610622576007600282815481106105bf577f4e487b7100000000000000000000000000000000000000000000000000000000600052603260045260246000fd5b90600052602060002090600b020160050160006101000a81548160ff0219169083600d811115610618577f4e487b7100000000000000000000000000000000000000000000000000000000600052602160045260246000fd5b0217905550610635565b808061062d906149f0565b915050610523565b50505050505050565b806000805b60028054905081101561076157826002828154811061068b577f4e487b7100000000000000000000000000000000000000000000000000000000600052603260045260246000fd5b90600052602060002090600b02016000015414801561074057503373ffffffffffffffffffffffffffffffffffffffff16600282815481106106f6577f4e487b7100000000000000000000000000000000000000000000000000000000600052603260045260246000fd5b90600052602060002090600b020160050160019054906101000a900473ffffffffffffffffffffffffffffffffffffffff1673ffffffffffffffffffffffffffffffffffffffff16145b1561074e5760019150610761565b8080610759906149f0565b915050610643565b508061076c57600080fd5b826000805b6002805490508110156107ed5782600282815481106107b9577f4e487b7100000000000000000000000000000000000000000000000000000000600052603260045260246000fd5b90600052602060002090600b02016000015414156107da57600191506107ed565b80806107e5906149f0565b915050610771565b50806107f857600080fd5b8460016000805b60028054905081101561094e578360028281548110610847577f4e487b7100000000000000000000000000000000000000000000000000000000600052603260045260246000fd5b90600052602060002090600b02016000015414801561092d575082600d81111561089a577f4e487b7100000000000000000000000000000000000000000000000000000000600052602160045260246000fd5b600282815481106108d4577f4e487b7100000000000000000000000000000000000000000000000000000000600052603260045260246000fd5b90600052602060002090600b020160050160009054906101000a900460ff16600d81111561092b577f4e487b7100000000000000000000000000000000000000000000000000000000600052602160045260246000fd5b145b1561093b576001915061094e565b8080610946906149f0565b9150506107ff565b508061095957600080fd5b60005b600280549050811015610b425788600282815481106109a4577f4e487b7100000000000000000000000000000000000000000000000000000000600052603260045260246000fd5b90600052602060002090600b020160000154148015610a8b57506001600d8111156109f8577f4e487b7100000000000000000000000000000000000000000000000000000000600052602160045260246000fd5b60028281548110610a32577f4e487b7100000000000000000000000000000000000000000000000000000000600052603260045260246000fd5b90600052602060002090600b020160050160009054906101000a900460ff16600d811115610a89577f4e487b7100000000000000000000000000000000000000000000000000000000600052602160045260246000fd5b145b15610b2f57600460028281548110610acc577f4e487b7100000000000000000000000000000000000000000000000000000000600052603260045260246000fd5b90600052602060002090600b020160050160006101000a81548160ff0219169083600d811115610b25577f4e487b7100000000000000000000000000000000000000000000000000000000600052602160045260246000fd5b0217905550610b42565b8080610b3a906149f0565b91505061095c565b505050505050505050565b836000805b600280549050811015610c70578260028281548110610b9a577f4e487b7100000000000000000000000000000000000000000000000000000000600052603260045260246000fd5b90600052602060002090600b020160000154148015610c4f57503373ffffffffffffffffffffffffffffffffffffffff1660028281548110610c05577f4e487b7100000000000000000000000000000000000000000000000000000000600052603260045260246000fd5b90600052602060002090600b020160050160019054906101000a900473ffffffffffffffffffffffffffffffffffffffff1673ffffffffffffffffffffffffffffffffffffffff16145b15610c5d5760019150610c70565b8080610c68906149f0565b915050610b52565b5080610c7b57600080fd5b856000805b600280549050811015610cfc578260028281548110610cc8577f4e487b7100000000000000000000000000000000000000000000000000000000600052603260045260246000fd5b90600052602060002090600b0201600001541415610ce95760019150610cfc565b8080610cf4906149f0565b915050610c80565b5080610d0757600080fd5b876000806000905060005b600280549050811015610e61578360028281548110610d5a577f4e487b7100000000000000000000000000000000000000000000000000000000600052603260045260246000fd5b90600052602060002090600b020160000154148015610e40575082600d811115610dad577f4e487b7100000000000000000000000000000000000000000000000000000000600052602160045260246000fd5b60028281548110610de7577f4e487b7100000000000000000000000000000000000000000000000000000000600052603260045260246000fd5b90600052602060002090600b020160050160009054906101000a900460ff16600d811115610e3e577f4e487b7100000000000000000000000000000000000000000000000000000000600052602160045260246000fd5b145b15610e4e5760019150610e61565b8080610e59906149f0565b915050610d12565b5080610e6c57600080fd5b89600160009054906101000a900473ffffffffffffffffffffffffffffffffffffffff1673ffffffffffffffffffffffffffffffffffffffff166319610fec826040518263ffffffff1660e01b8152600401610ec8919061466c565b60206040518083038186803b158015610ee057600080fd5b505afa158015610ef4573d6000803e3d6000fd5b505050506040513d601f19601f82011682018060405250810190610f189190614173565b610f57576040517f08c379a0000000000000000000000000000000000000000000000000000000008152600401610f4e906146a9565b60405180910390fd5b60005b600280549050811015611196578c60028281548110610fa2577f4e487b7100000000000000000000000000000000000000000000000000000000600052603260045260246000fd5b90600052602060002090600b0201600001541415611183578b60028281548110610ff5577f4e487b7100000000000000000000000000000000000000000000000000000000600052603260045260246000fd5b90600052602060002090600b020160090160006101000a81548173ffffffffffffffffffffffffffffffffffffffff021916908373ffffffffffffffffffffffffffffffffffffffff1602179055508a6002828154811061107f577f4e487b7100000000000000000000000000000000000000000000000000000000600052603260045260246000fd5b90600052602060002090600b02016008018190555089600282815481106110cf577f4e487b7100000000000000000000000000000000000000000000000000000000600052603260045260246000fd5b90600052602060002090600b0201600a0181905550600160028281548110611120577f4e487b7100000000000000000000000000000000000000000000000000000000600052603260045260246000fd5b90600052602060002090600b020160050160006101000a81548160ff0219169083600d811115611179577f4e487b7100000000000000000000000000000000000000000000000000000000600052602160045260246000fd5b0217905550611196565b808061118e906149f0565b915050610f5a565b50505050505050505050505050565b60008054906101000a900473ffffffffffffffffffffffffffffffffffffffff1673ffffffffffffffffffffffffffffffffffffffff163373ffffffffffffffffffffffffffffffffffffffff16146111fd57600080fd5b806000805b60028054905081101561127e57826002828154811061124a577f4e487b7100000000000000000000000000000000000000000000000000000000600052603260045260246000fd5b90600052602060002090600b020160000154141561126b576001915061127e565b8080611276906149f0565b915050611202565b508061128957600080fd5b82600c6000805b6002805490508110156113df5783600282815481106112d8577f4e487b7100000000000000000000000000000000000000000000000000000000600052603260045260246000fd5b90600052602060002090600b0201600001541480156113be575082600d81111561132b577f4e487b7100000000000000000000000000000000000000000000000000000000600052602160045260246000fd5b60028281548110611365577f4e487b7100000000000000000000000000000000000000000000000000000000600052603260045260246000fd5b90600052602060002090600b020160050160009054906101000a900460ff16600d8111156113bc577f4e487b7100000000000000000000000000000000000000000000000000000000600052602160045260246000fd5b145b156113cc57600191506113df565b80806113d7906149f0565b915050611290565b50806113ea57600080fd5b60005b6002805490508110156114ff578660028281548110611435577f4e487b7100000000000000000000000000000000000000000000000000000000600052603260045260246000fd5b90600052602060002090600b02016000015414156114ec57600d60028281548110611489577f4e487b7100000000000000000000000000000000000000000000000000000000600052603260045260246000fd5b90600052602060002090600b020160050160006101000a81548160ff0219169083600d8111156114e2577f4e487b7100000000000000000000000000000000000000000000000000000000600052602160045260246000fd5b02179055506114ff565b80806114f7906149f0565b9150506113ed565b50505050505050565b60008054906101000a900473ffffffffffffffffffffffffffffffffffffffff1673ffffffffffffffffffffffffffffffffffffffff163373ffffffffffffffffffffffffffffffffffffffff161461156057600080fd5b806000805b6002805490508110156115e15782600282815481106115ad577f4e487b7100000000000000000000000000000000000000000000000000000000600052603260045260246000fd5b90600052602060002090600b02016000015414156115ce57600191506115e1565b80806115d9906149f0565b915050611565565b50806115ec57600080fd5b8260036000805b60028054905081101561174257836002828154811061163b577f4e487b7100000000000000000000000000000000000000000000000000000000600052603260045260246000fd5b90600052602060002090600b020160000154148015611721575082600d81111561168e577f4e487b7100000000000000000000000000000000000000000000000000000000600052602160045260246000fd5b600282815481106116c8577f4e487b7100000000000000000000000000000000000000000000000000000000600052603260045260246000fd5b90600052602060002090600b020160050160009054906101000a900460ff16600d81111561171f577f4e487b7100000000000000000000000000000000000000000000000000000000600052602160045260246000fd5b145b1561172f5760019150611742565b808061173a906149f0565b9150506115f3565b508061174d57600080fd5b60005b600280549050811015611862578660028281548110611798577f4e487b7100000000000000000000000000000000000000000000000000000000600052603260045260246000fd5b90600052602060002090600b020160000154141561184f576006600282815481106117ec577f4e487b7100000000000000000000000000000000000000000000000000000000600052603260045260246000fd5b90600052602060002090600b020160050160006101000a81548160ff0219169083600d811115611845577f4e487b7100000000000000000000000000000000000000000000000000000000600052602160045260246000fd5b0217905550611862565b808061185a906149f0565b915050611750565b50505050505050565b806000805b60028054905081101561198e5782600282815481106118b8577f4e487b7100000000000000000000000000000000000000000000000000000000600052603260045260246000fd5b90600052602060002090600b02016000015414801561196d57503373ffffffffffffffffffffffffffffffffffffffff1660028281548110611923577f4e487b7100000000000000000000000000000000000000000000000000000000600052603260045260246000fd5b90600052602060002090600b020160050160019054906101000a900473ffffffffffffffffffffffffffffffffffffffff1673ffffffffffffffffffffffffffffffffffffffff16145b1561197b576001915061198e565b8080611986906149f0565b915050611870565b508061199957600080fd5b826000805b600280549050811015611a1a5782600282815481106119e6577f4e487b7100000000000000000000000000000000000000000000000000000000600052603260045260246000fd5b90600052602060002090600b0201600001541415611a075760019150611a1a565b8080611a12906149f0565b91505061199e565b5080611a2557600080fd5b8460016000805b600280549050811015611b7b578360028281548110611a74577f4e487b7100000000000000000000000000000000000000000000000000000000600052603260045260246000fd5b90600052602060002090600b020160000154148015611b5a575082600d811115611ac7577f4e487b7100000000000000000000000000000000000000000000000000000000600052602160045260246000fd5b60028281548110611b01577f4e487b7100000000000000000000000000000000000000000000000000000000600052603260045260246000fd5b90600052602060002090600b020160050160009054906101000a900460ff16600d811115611b58577f4e487b7100000000000000000000000000000000000000000000000000000000600052602160045260246000fd5b145b15611b685760019150611b7b565b8080611b73906149f0565b915050611a2c565b5080611b8657600080fd5b60005b600280549050811015611c9a578860028281548110611bd1577f4e487b7100000000000000000000000000000000000000000000000000000000600052603260045260246000fd5b90600052602060002090600b0201600001541415611c87576002808281548110611c24577f4e487b7100000000000000000000000000000000000000000000000000000000600052603260045260246000fd5b90600052602060002090600b020160050160006101000a81548160ff0219169083600d811115611c7d577f4e487b7100000000000000000000000000000000000000000000000000000000600052602160045260246000fd5b0217905550611c9a565b8080611c92906149f0565b915050611b89565b505050505050505050565b60008054906101000a900473ffffffffffffffffffffffffffffffffffffffff1673ffffffffffffffffffffffffffffffffffffffff163373ffffffffffffffffffffffffffffffffffffffff1614611cfd57600080fd5b806000805b600280549050811015611d7e578260028281548110611d4a577f4e487b7100000000000000000000000000000000000000000000000000000000600052603260045260246000fd5b90600052602060002090600b0201600001541415611d6b5760019150611d7e565b8080611d76906149f0565b915050611d02565b5080611d8957600080fd5b8260076000805b600280549050811015611edf578360028281548110611dd8577f4e487b7100000000000000000000000000000000000000000000000000000000600052603260045260246000fd5b90600052602060002090600b020160000154148015611ebe575082600d811115611e2b577f4e487b7100000000000000000000000000000000000000000000000000000000600052602160045260246000fd5b60028281548110611e65577f4e487b7100000000000000000000000000000000000000000000000000000000600052603260045260246000fd5b90600052602060002090600b020160050160009054906101000a900460ff16600d811115611ebc577f4e487b7100000000000000000000000000000000000000000000000000000000600052602160045260246000fd5b145b15611ecc5760019150611edf565b8080611ed7906149f0565b915050611d90565b5080611eea57600080fd5b60005b600280549050811015611fff578660028281548110611f35577f4e487b7100000000000000000000000000000000000000000000000000000000600052603260045260246000fd5b90600052602060002090600b0201600001541415611fec57600860028281548110611f89577f4e487b7100000000000000000000000000000000000000000000000000000000600052603260045260246000fd5b90600052602060002090600b020160050160006101000a81548160ff0219169083600d811115611fe2577f4e487b7100000000000000000000000000000000000000000000000000000000600052602160045260246000fd5b0217905550611fff565b8080611ff7906149f0565b915050611eed565b50505050505050565b600160009054906101000a900473ffffffffffffffffffffffffffffffffffffffff1673ffffffffffffffffffffffffffffffffffffffff16633314168c336040518263ffffffff1660e01b8152600401612063919061466c565b60206040518083038186803b15801561207b57600080fd5b505afa15801561208f573d6000803e3d6000fd5b505050506040513d601f19601f820116820180604052508101906120b39190614173565b6120f2576040517f08c379a00000000000000000000000000000000000000000000000000000000081526004016120e9906146c9565b60405180910390fd5b600060405180610180016040528060016002805490506121129190614888565b81526020018881526020018781526020018681526020018581526020016000600d811115612169577f4e487b7100000000000000000000000000000000000000000000000000000000600052602160045260246000fd5b81526020013373ffffffffffffffffffffffffffffffffffffffff1681526020018473ffffffffffffffffffffffffffffffffffffffff16815260200183815260200160008152602001600073ffffffffffffffffffffffffffffffffffffffff1681526020016000815250905060028190806001815401808255809150506001900390600052602060002090600b0201600090919091909150600082015181600001556020820151816001015560408201518160020155606082015181600301556080820151816004019080519060200190612247929190613f4e565b5060a08201518160050160006101000a81548160ff0219169083600d811115612299577f4e487b7100000000000000000000000000000000000000000000000000000000600052602160045260246000fd5b021790555060c08201518160050160016101000a81548173ffffffffffffffffffffffffffffffffffffffff021916908373ffffffffffffffffffffffffffffffffffffffff16021790555060e08201518160060160006101000a81548173ffffffffffffffffffffffffffffffffffffffff021916908373ffffffffffffffffffffffffffffffffffffffff160217905550610100820151816007015561012082015181600801556101408201518160090160006101000a81548173ffffffffffffffffffffffffffffffffffffffff021916908373ffffffffffffffffffffffffffffffffffffffff16021790555061016082015181600a015550507f5a404395e873a991d39ecc96c61536806a9812b0dedc602f9aa6046168c93bed816000015182602001518360400151846060015185608001518660a001518760c001518860e001518961010001518a61012001518b61014001518c61016001516040516124109c9b9a9998979695949392919061470b565b60405180910390a150505050505050565b60008054906101000a900473ffffffffffffffffffffffffffffffffffffffff1673ffffffffffffffffffffffffffffffffffffffff163373ffffffffffffffffffffffffffffffffffffffff161461247957600080fd5b806000805b6002805490508110156124fa5782600282815481106124c6577f4e487b7100000000000000000000000000000000000000000000000000000000600052603260045260246000fd5b90600052602060002090600b02016000015414156124e757600191506124fa565b80806124f2906149f0565b91505061247e565b508061250557600080fd5b8260096000805b60028054905081101561265b578360028281548110612554577f4e487b7100000000000000000000000000000000000000000000000000000000600052603260045260246000fd5b90600052602060002090600b02016000015414801561263a575082600d8111156125a7577f4e487b7100000000000000000000000000000000000000000000000000000000600052602160045260246000fd5b600282815481106125e1577f4e487b7100000000000000000000000000000000000000000000000000000000600052603260045260246000fd5b90600052602060002090600b020160050160009054906101000a900460ff16600d811115612638577f4e487b7100000000000000000000000000000000000000000000000000000000600052602160045260246000fd5b145b15612648576001915061265b565b8080612653906149f0565b91505061250c565b508061266657600080fd5b60005b60028054905081101561277b5786600282815481106126b1577f4e487b7100000000000000000000000000000000000000000000000000000000600052603260045260246000fd5b90600052602060002090600b020160000154141561276857600a60028281548110612705577f4e487b7100000000000000000000000000000000000000000000000000000000600052603260045260246000fd5b90600052602060002090600b020160050160006101000a81548160ff0219169083600d81111561275e577f4e487b7100000000000000000000000000000000000000000000000000000000600052602160045260246000fd5b021790555061277b565b8080612773906149f0565b915050612669565b50505050505050565b60606002805480602002602001604051908101604052809291908181526020016000905b82821015612a3c57838290600052602060002090600b020160405180610180016040529081600082015481526020016001820154815260200160028201548152602001600382015481526020016004820180546128049061498d565b80601f01602080910402602001604051908101604052809291908181526020018280546128309061498d565b801561287d5780601f106128525761010080835404028352916020019161287d565b820191906000526020600020905b81548152906001019060200180831161286057829003601f168201915b505050505081526020016005820160009054906101000a900460ff16600d8111156128d1577f4e487b7100000000000000000000000000000000000000000000000000000000600052602160045260246000fd5b600d811115612909577f4e487b7100000000000000000000000000000000000000000000000000000000600052602160045260246000fd5b81526020016005820160019054906101000a900473ffffffffffffffffffffffffffffffffffffffff1673ffffffffffffffffffffffffffffffffffffffff1673ffffffffffffffffffffffffffffffffffffffff1681526020016006820160009054906101000a900473ffffffffffffffffffffffffffffffffffffffff1673ffffffffffffffffffffffffffffffffffffffff1673ffffffffffffffffffffffffffffffffffffffff16815260200160078201548152602001600882015481526020016009820160009054906101000a900473ffffffffffffffffffffffffffffffffffffffff1673ffffffffffffffffffffffffffffffffffffffff1673ffffffffffffffffffffffffffffffffffffffff168152602001600a82015481525050815260200190600101906127a8565b50505050905090565b60008054906101000a900473ffffffffffffffffffffffffffffffffffffffff1673ffffffffffffffffffffffffffffffffffffffff163373ffffffffffffffffffffffffffffffffffffffff1614612a9d57600080fd5b806000805b600280549050811015612b1e578260028281548110612aea577f4e487b7100000000000000000000000000000000000000000000000000000000600052603260045260246000fd5b90600052602060002090600b0201600001541415612b0b5760019150612b1e565b8080612b16906149f0565b915050612aa2565b5080612b2957600080fd5b8260036000805b600280549050811015612c7f578360028281548110612b78577f4e487b7100000000000000000000000000000000000000000000000000000000600052603260045260246000fd5b90600052602060002090600b020160000154148015612c5e575082600d811115612bcb577f4e487b7100000000000000000000000000000000000000000000000000000000600052602160045260246000fd5b60028281548110612c05577f4e487b7100000000000000000000000000000000000000000000000000000000600052603260045260246000fd5b90600052602060002090600b020160050160009054906101000a900460ff16600d811115612c5c577f4e487b7100000000000000000000000000000000000000000000000000000000600052602160045260246000fd5b145b15612c6c5760019150612c7f565b8080612c77906149f0565b915050612b30565b5080612c8a57600080fd5b60005b600280549050811015612d9f578660028281548110612cd5577f4e487b7100000000000000000000000000000000000000000000000000000000600052603260045260246000fd5b90600052602060002090600b0201600001541415612d8c57600560028281548110612d29577f4e487b7100000000000000000000000000000000000000000000000000000000600052603260045260246000fd5b90600052602060002090600b020160050160006101000a81548160ff0219169083600d811115612d82577f4e487b7100000000000000000000000000000000000000000000000000000000600052602160045260246000fd5b0217905550612d9f565b8080612d97906149f0565b915050612c8d565b50505050505050565b806000805b600280549050811015612ecb578260028281548110612df5577f4e487b7100000000000000000000000000000000000000000000000000000000600052603260045260246000fd5b90600052602060002090600b020160000154148015612eaa57503373ffffffffffffffffffffffffffffffffffffffff1660028281548110612e60577f4e487b7100000000000000000000000000000000000000000000000000000000600052603260045260246000fd5b90600052602060002090600b020160060160009054906101000a900473ffffffffffffffffffffffffffffffffffffffff1673ffffffffffffffffffffffffffffffffffffffff16145b15612eb85760019150612ecb565b8080612ec3906149f0565b915050612dad565b5080612ed657600080fd5b826000805b600280549050811015612f57578260028281548110612f23577f4e487b7100000000000000000000000000000000000000000000000000000000600052603260045260246000fd5b90600052602060002090600b0201600001541415612f445760019150612f57565b8080612f4f906149f0565b915050612edb565b5080612f6257600080fd5b8460026000805b6002805490508110156130b8578360028281548110612fb1577f4e487b7100000000000000000000000000000000000000000000000000000000600052603260045260246000fd5b90600052602060002090600b020160000154148015613097575082600d811115613004577f4e487b7100000000000000000000000000000000000000000000000000000000600052602160045260246000fd5b6002828154811061303e577f4e487b7100000000000000000000000000000000000000000000000000000000600052603260045260246000fd5b90600052602060002090600b020160050160009054906101000a900460ff16600d811115613095577f4e487b7100000000000000000000000000000000000000000000000000000000600052602160045260246000fd5b145b156130a557600191506130b8565b80806130b0906149f0565b915050612f69565b50806130c357600080fd5b60005b6002805490508110156131d857886002828154811061310e577f4e487b7100000000000000000000000000000000000000000000000000000000600052603260045260246000fd5b90600052602060002090600b02016000015414156131c557600360028281548110613162577f4e487b7100000000000000000000000000000000000000000000000000000000600052603260045260246000fd5b90600052602060002090600b020160050160006101000a81548160ff0219169083600d8111156131bb577f4e487b7100000000000000000000000000000000000000000000000000000000600052602160045260246000fd5b02179055506131d8565b80806131d0906149f0565b9150506130c6565b505050505050505050565b6131eb613fd4565b60005b60028054905081101561351e578260028281548110613236577f4e487b7100000000000000000000000000000000000000000000000000000000600052603260045260246000fd5b90600052602060002090600b020160000154141561350b5760028181548110613288577f4e487b7100000000000000000000000000000000000000000000000000000000600052603260045260246000fd5b90600052602060002090600b020160405180610180016040529081600082015481526020016001820154815260200160028201548152602001600382015481526020016004820180546132da9061498d565b80601f01602080910402602001604051908101604052809291908181526020018280546133069061498d565b80156133535780601f1061332857610100808354040283529160200191613353565b820191906000526020600020905b81548152906001019060200180831161333657829003601f168201915b505050505081526020016005820160009054906101000a900460ff16600d8111156133a7577f4e487b7100000000000000000000000000000000000000000000000000000000600052602160045260246000fd5b600d8111156133df577f4e487b7100000000000000000000000000000000000000000000000000000000600052602160045260246000fd5b81526020016005820160019054906101000a900473ffffffffffffffffffffffffffffffffffffffff1673ffffffffffffffffffffffffffffffffffffffff1673ffffffffffffffffffffffffffffffffffffffff1681526020016006820160009054906101000a900473ffffffffffffffffffffffffffffffffffffffff1673ffffffffffffffffffffffffffffffffffffffff1673ffffffffffffffffffffffffffffffffffffffff16815260200160078201548152602001600882015481526020016009820160009054906101000a900473ffffffffffffffffffffffffffffffffffffffff1673ffffffffffffffffffffffffffffffffffffffff1673ffffffffffffffffffffffffffffffffffffffff168152602001600a82015481525050915050613520565b8080613516906149f0565b9150506131ee565b505b919050565b60008054906101000a900473ffffffffffffffffffffffffffffffffffffffff1673ffffffffffffffffffffffffffffffffffffffff163373ffffffffffffffffffffffffffffffffffffffff161461357d57600080fd5b806000805b6002805490508110156135fe5782600282815481106135ca577f4e487b7100000000000000000000000000000000000000000000000000000000600052603260045260246000fd5b90600052602060002090600b02016000015414156135eb57600191506135fe565b80806135f6906149f0565b915050613582565b508061360957600080fd5b8260096000805b60028054905081101561375f578360028281548110613658577f4e487b7100000000000000000000000000000000000000000000000000000000600052603260045260246000fd5b90600052602060002090600b02016000015414801561373e575082600d8111156136ab577f4e487b7100000000000000000000000000000000000000000000000000000000600052602160045260246000fd5b600282815481106136e5577f4e487b7100000000000000000000000000000000000000000000000000000000600052603260045260246000fd5b90600052602060002090600b020160050160009054906101000a900460ff16600d81111561373c577f4e487b7100000000000000000000000000000000000000000000000000000000600052602160045260246000fd5b145b1561374c576001915061375f565b8080613757906149f0565b915050613610565b508061376a57600080fd5b60005b60028054905081101561387f5786600282815481106137b5577f4e487b7100000000000000000000000000000000000000000000000000000000600052603260045260246000fd5b90600052602060002090600b020160000154141561386c57600b60028281548110613809577f4e487b7100000000000000000000000000000000000000000000000000000000600052603260045260246000fd5b90600052602060002090600b020160050160006101000a81548160ff0219169083600d811115613862577f4e487b7100000000000000000000000000000000000000000000000000000000600052602160045260246000fd5b021790555061387f565b8080613877906149f0565b91505061376d565b50505050505050565b60008054906101000a900473ffffffffffffffffffffffffffffffffffffffff1673ffffffffffffffffffffffffffffffffffffffff163373ffffffffffffffffffffffffffffffffffffffff16146138e057600080fd5b806000805b60028054905081101561396157826002828154811061392d577f4e487b7100000000000000000000000000000000000000000000000000000000600052603260045260246000fd5b90600052602060002090600b020160000154141561394e5760019150613961565b8080613959906149f0565b9150506138e5565b508061396c57600080fd5b8260086000805b600280549050811015613ac25783600282815481106139bb577f4e487b7100000000000000000000000000000000000000000000000000000000600052603260045260246000fd5b90600052602060002090600b020160000154148015613aa1575082600d811115613a0e577f4e487b7100000000000000000000000000000000000000000000000000000000600052602160045260246000fd5b60028281548110613a48577f4e487b7100000000000000000000000000000000000000000000000000000000600052603260045260246000fd5b90600052602060002090600b020160050160009054906101000a900460ff16600d811115613a9f577f4e487b7100000000000000000000000000000000000000000000000000000000600052602160045260246000fd5b145b15613aaf5760019150613ac2565b8080613aba906149f0565b915050613973565b5080613acd57600080fd5b60005b600280549050811015613be2578660028281548110613b18577f4e487b7100000000000000000000000000000000000000000000000000000000600052603260045260246000fd5b90600052602060002090600b0201600001541415613bcf57600960028281548110613b6c577f4e487b7100000000000000000000000000000000000000000000000000000000600052603260045260246000fd5b90600052602060002090600b020160050160006101000a81548160ff0219169083600d811115613bc5577f4e487b7100000000000000000000000000000000000000000000000000000000600052602160045260246000fd5b0217905550613be2565b8080613bda906149f0565b915050613ad0565b50505050505050565b60008054906101000a900473ffffffffffffffffffffffffffffffffffffffff1673ffffffffffffffffffffffffffffffffffffffff163373ffffffffffffffffffffffffffffffffffffffff1614613c4357600080fd5b806000805b600280549050811015613cc4578260028281548110613c90577f4e487b7100000000000000000000000000000000000000000000000000000000600052603260045260246000fd5b90600052602060002090600b0201600001541415613cb15760019150613cc4565b8080613cbc906149f0565b915050613c48565b5080613ccf57600080fd5b82600a6000805b600280549050811015613e25578360028281548110613d1e577f4e487b7100000000000000000000000000000000000000000000000000000000600052603260045260246000fd5b90600052602060002090600b020160000154148015613e04575082600d811115613d71577f4e487b7100000000000000000000000000000000000000000000000000000000600052602160045260246000fd5b60028281548110613dab577f4e487b7100000000000000000000000000000000000000000000000000000000600052603260045260246000fd5b90600052602060002090600b020160050160009054906101000a900460ff16600d811115613e02577f4e487b7100000000000000000000000000000000000000000000000000000000600052602160045260246000fd5b145b15613e125760019150613e25565b8080613e1d906149f0565b915050613cd6565b5080613e3057600080fd5b60005b600280549050811015613f45578660028281548110613e7b577f4e487b7100000000000000000000000000000000000000000000000000000000600052603260045260246000fd5b90600052602060002090600b0201600001541415613f3257600c60028281548110613ecf577f4e487b7100000000000000000000000000000000000000000000000000000000600052603260045260246000fd5b90600052602060002090600b020160050160006101000a81548160ff0219169083600d811115613f28577f4e487b7100000000000000000000000000000000000000000000000000000000600052602160045260246000fd5b0217905550613f45565b8080613f3d906149f0565b915050613e33565b50505050505050565b828054613f5a9061498d565b90600052602060002090601f016020900481019282613f7c5760008555613fc3565b82601f10613f9557805160ff1916838001178555613fc3565b82800160010185558215613fc3579182015b82811115613fc2578251825591602001919060010190613fa7565b5b509050613fd091906140af565b5090565b60405180610180016040528060008152602001600081526020016000815260200160008152602001606081526020016000600d81111561403d577f4e487b7100000000000000000000000000000000000000000000000000000000600052602160045260246000fd5b8152602001600073ffffffffffffffffffffffffffffffffffffffff168152602001600073ffffffffffffffffffffffffffffffffffffffff1681526020016000815260200160008152602001600073ffffffffffffffffffffffffffffffffffffffff168152602001600081525090565b5b808211156140c85760008160009055506001016140b0565b5090565b60006140df6140da846147f1565b6147cc565b9050828152602081018484840111156140f757600080fd5b61410284828561494b565b509392505050565b60008135905061411981614b6c565b92915050565b60008151905061412e81614b83565b92915050565b600082601f83011261414557600080fd5b81356141558482602086016140cc565b91505092915050565b60008135905061416d81614b9a565b92915050565b60006020828403121561418557600080fd5b60006141938482850161411f565b91505092915050565b6000602082840312156141ae57600080fd5b60006141bc8482850161415e565b91505092915050565b600080600080608085870312156141db57600080fd5b60006141e98782880161415e565b94505060206141fa8782880161410a565b935050604061420b8782880161415e565b925050606061421c8782880161415e565b91505092959194509250565b60008060008060008060c0878903121561424157600080fd5b600061424f89828a0161415e565b965050602061426089828a0161415e565b955050604061427189828a0161415e565b945050606087013567ffffffffffffffff81111561428e57600080fd5b61429a89828a01614134565b93505060806142ab89828a0161410a565b92505060a06142bc89828a0161415e565b9150509295509295509295565b60006142d58383614446565b905092915050565b6142e6816148de565b82525050565b6142f5816148de565b82525050565b600061430682614832565b6143108185614855565b93508360208202850161432285614822565b8060005b8581101561435e578484038952815161433f85826142c9565b945061434a83614848565b925060208a01995050600181019050614326565b50829750879550505050505092915050565b61437981614939565b82525050565b61438881614939565b82525050565b60006143998261483d565b6143a38185614866565b93506143b381856020860161495a565b6143bc81614af5565b840191505092915050565b60006143d28261483d565b6143dc8185614877565b93506143ec81856020860161495a565b6143f581614af5565b840191505092915050565b600061440d601983614877565b915061441882614b06565b602082019050919050565b6000614430600b83614877565b915061443b82614b2f565b602082019050919050565b60006101808301600083015161445f600086018261464e565b506020830151614472602086018261464e565b506040830151614485604086018261464e565b506060830151614498606086018261464e565b50608083015184820360808601526144b0828261438e565b91505060a08301516144c560a0860182614370565b5060c08301516144d860c08601826142dd565b5060e08301516144eb60e08601826142dd565b5061010083015161450061010086018261464e565b5061012083015161451561012086018261464e565b5061014083015161452a6101408601826142dd565b5061016083015161453f61016086018261464e565b508091505092915050565b600061018083016000830151614563600086018261464e565b506020830151614576602086018261464e565b506040830151614589604086018261464e565b50606083015161459c606086018261464e565b50608083015184820360808601526145b4828261438e565b91505060a08301516145c960a0860182614370565b5060c08301516145dc60c08601826142dd565b5060e08301516145ef60e08601826142dd565b5061010083015161460461010086018261464e565b5061012083015161461961012086018261464e565b5061014083015161462e6101408601826142dd565b5061016083015161464361016086018261464e565b508091505092915050565b6146578161492f565b82525050565b6146668161492f565b82525050565b600060208201905061468160008301846142ec565b92915050565b600060208201905081810360008301526146a181846142fb565b905092915050565b600060208201905081810360008301526146c281614400565b9050919050565b600060208201905081810360008301526146e281614423565b9050919050565b60006020820190508181036000830152614703818461454a565b905092915050565b600061018082019050614721600083018f61465d565b61472e602083018e61465d565b61473b604083018d61465d565b614748606083018c61465d565b818103608083015261475a818b6143c7565b905061476960a083018a61437f565b61477660c08301896142ec565b61478360e08301886142ec565b61479161010083018761465d565b61479f61012083018661465d565b6147ad6101408301856142ec565b6147bb61016083018461465d565b9d9c50505050505050505050505050565b60006147d66147e7565b90506147e282826149bf565b919050565b6000604051905090565b600067ffffffffffffffff82111561480c5761480b614ac6565b5b61481582614af5565b9050602081019050919050565b6000819050602082019050919050565b600081519050919050565b600081519050919050565b6000602082019050919050565b600082825260208201905092915050565b600082825260208201905092915050565b600082825260208201905092915050565b60006148938261492f565b915061489e8361492f565b9250827fffffffffffffffffffffffffffffffffffffffffffffffffffffffffffffffff038211156148d3576148d2614a39565b5b828201905092915050565b60006148e98261490f565b9050919050565b60008115159050919050565b600081905061490a82614b58565b919050565b600073ffffffffffffffffffffffffffffffffffffffff82169050919050565b6000819050919050565b6000614944826148fc565b9050919050565b82818337600083830152505050565b60005b8381101561497857808201518184015260208101905061495d565b83811115614987576000848401525b50505050565b600060028204905060018216806149a557607f821691505b602082108114156149b9576149b8614a97565b5b50919050565b6149c882614af5565b810181811067ffffffffffffffff821117156149e7576149e6614ac6565b5b80604052505050565b60006149fb8261492f565b91507fffffffffffffffffffffffffffffffffffffffffffffffffffffffffffffffff821415614a2e57614a2d614a39565b5b600182019050919050565b7f4e487b7100000000000000000000000000000000000000000000000000000000600052601160045260246000fd5b7f4e487b7100000000000000000000000000000000000000000000000000000000600052602160045260246000fd5b7f4e487b7100000000000000000000000000000000000000000000000000000000600052602260045260246000fd5b7f4e487b7100000000000000000000000000000000000000000000000000000000600052604160045260246000fd5b6000601f19601f8301169050919050565b7f496e76616c696420496e737572616e636520436f6d70616e7900000000000000600082015250565b7f42726f6b6572204f6e6c79000000000000000000000000000000000000000000600082015250565b600e8110614b6957614b68614a68565b5b50565b614b75816148de565b8114614b8057600080fd5b50565b614b8c816148f0565b8114614b9757600080fd5b50565b614ba38161492f565b8114614bae57600080fd5b5056fea26469706673582212200d1dc5a25cb1ae401737a3d00d464050fe33a7863639e46ed22cb2e29c88d7a964736f6c63430008010033",
  "immutableReferences": {},
  "source": "// SPDX-License-Identifier: GPL-3.0\npragma solidity >=0.7.0 <0.9.0;\n\nimport \"./UserIdentity.sol\";\n\ncontract BankLoan{\n    \n    enum LoanState{\n        REQUESTED, \n        INSURANCE_APPLIED, \n        INSURANCE_APPROVED, \n        BORROWER_SIGNED, \n        INSURANCE_REJECTED,\n        BANK_APPROVED, \n        BANK_REJECTED,  \n        PAID_TO_INSURANCE, \n        PAID_TO_BROKER,\n        ONGOING, \n        DEFAULT, \n        CLOSE,\n        CLAIM_REQUESTED, \n        CLAIMED\n    }\n    \n    struct Loan\n    {\n        uint id;\n        uint amount;\n        uint months;\n        uint interest;\n        string planId;\n        LoanState state;\n        address broker;\n        address borrower;\n        uint brokerFee;\n        uint insuranceFee;\n        address insurance;\n        uint insurancePolicyId;\n    }\n    \n    event loanRequest(\n        uint id,\n        uint amount,\n        uint months,\n        uint interest,\n        string planId,\n        LoanState state,\n        address broker,\n        address borrower,\n        uint brokerFee,\n        uint insuranceFee,\n        address insurance,\n        uint insurancePolicyId\n    );\n    \n    address private admin;\n    UserIdentity identitySC;\n    Loan[] private loans;\n    \n    constructor (address _identitySC) {\n            admin = msg.sender;\n            identitySC = UserIdentity(_identitySC);\n    }\n    \n    modifier isAdmin()\n    {\n        require(msg.sender == admin);\n        _;\n    }\n    \n    modifier isBroker()\n    {\n        require(identitySC.verifyIsBroker(msg.sender), 'Broker Only');\n        _;\n    }\n\n    modifier isInsurance(address _address)\n    {\n        require(identitySC.verifyIsInsurer(_address), 'Invalid Insurance Company');\n        _;\n    }\n\n    modifier isLoanBroker(uint _loanId){\n        bool isValid = false;\n        for(uint i=0; i< loans.length; i++)\n        {\n            if(loans[i].id == _loanId && loans[i].broker == msg.sender)\n            {\n                isValid = true;\n                break;\n            }\n        }\n        require(isValid);\n        _;\n    }\n\n    modifier isLoanBorrower(uint _loanId){\n        bool isValid = false;\n        for(uint i=0; i< loans.length; i++)\n        {\n            if(loans[i].id == _loanId && loans[i].borrower == msg.sender)\n            {\n                isValid = true;\n                break;\n            }\n        }\n        require(isValid);\n        _;\n    }\n    \n    modifier isValidLoan(uint _loanId)\n    {\n        bool isValid = false;\n        for(uint i=0; i< loans.length; i++)\n        {\n            if(loans[i].id == _loanId)\n            {\n                isValid = true;\n                break;\n            }\n        }\n        require(isValid);\n        _;\n    }\n    \n    modifier isLoanIn(uint _loanId, LoanState _state)\n    {\n        bool isValid = false;\n        for(uint i=0; i< loans.length; i++)\n        {\n            if(loans[i].id == _loanId && loans[i].state == _state)\n            {\n                isValid = true;\n                break;\n            }\n        }\n        require(isValid);\n        _;\n    }\n\n    function applyLoan(uint _amount, uint _months, uint _interest, string memory _planId, \n        address _borrower, uint _brokerFee) public isBroker()\n    {\n        Loan memory l = Loan(loans.length + 1, _amount, _months, _interest, _planId, LoanState.REQUESTED, msg.sender,\n        _borrower, _brokerFee, 0, 0x0000000000000000000000000000000000000000, 0);\n        \n        loans.push(l);\n        \n        emit loanRequest(l.id, l.amount, l.months, l.interest, l.planId,\n            l.state, l.broker, l.borrower, l.brokerFee, l.insuranceFee, l.insurance, l.insurancePolicyId );\n    }\n    \n    function addInsurance(uint _loanId, address _insurance, uint _insuranceFee, uint _insurancePolicyId) public \n        isLoanBroker(_loanId) \n        isValidLoan(_loanId)\n        isLoanIn(_loanId, LoanState.REQUESTED) \n        isInsurance(_insurance)\n    {\n        for (uint i = 0; i < loans.length; i++) {\n            if (loans[i].id == _loanId) {\n                loans[i].insurance = _insurance;\n                loans[i].insuranceFee = _insuranceFee;\n                loans[i].insurancePolicyId = _insurancePolicyId;\n                loans[i].state = LoanState.INSURANCE_APPLIED;\n                break;\n            }\n        }\n    }\n\n    function insuranceApproved(uint _loanId) public isLoanBroker(_loanId) isValidLoan(_loanId)\n        isLoanIn(_loanId, LoanState.INSURANCE_APPLIED)\n    {\n        for (uint i = 0; i < loans.length; i++) {\n            if (loans[i].id == _loanId) {\n                loans[i].state = LoanState.INSURANCE_APPROVED;\n                break;\n            }\n        }\n    }\n    \n    function insuranceRejected(uint _loanId) public isLoanBroker(_loanId) isValidLoan(_loanId) \n        isLoanIn(_loanId, LoanState.INSURANCE_APPLIED)\n    {\n        for (uint i = 0; i < loans.length; i++) {\n            if (loans[i].id == _loanId && loans[i].state == LoanState.INSURANCE_APPLIED) {\n                loans[i].state = LoanState.INSURANCE_REJECTED;\n                break;\n            }\n        }\n    }\n    \n    function signByBorrower(uint _loanId) public isLoanBorrower(_loanId) isValidLoan(_loanId) isLoanIn(_loanId, LoanState.INSURANCE_APPROVED)\n    {\n        for (uint i = 0; i < loans.length; i++) {\n            if (loans[i].id == _loanId) {\n                loans[i].state = LoanState.BORROWER_SIGNED;\n                break;\n            }\n        }\n    }\n    \n    \n    function approveLoan(uint _loanId) public isAdmin() isValidLoan(_loanId) isLoanIn(_loanId, LoanState.BORROWER_SIGNED)\n    {\n        for (uint i = 0; i < loans.length; i++) {\n            if (loans[i].id == _loanId) {\n                loans[i].state = LoanState.BANK_APPROVED;\n                break;\n            }\n        }\n    }\n    \n    function rejectLoan(uint _loanId) public isAdmin() isValidLoan(_loanId) isLoanIn(_loanId, LoanState.BORROWER_SIGNED)\n    {\n        for (uint i = 0; i < loans.length; i++) {\n            if (loans[i].id == _loanId) {\n                loans[i].state = LoanState.BANK_REJECTED;\n                break;\n            }\n        }\n    }\n    \n    function confirmTokenTrasferToInsurance(uint _loanId) public isAdmin() isValidLoan(_loanId) isLoanIn(_loanId, LoanState.BANK_APPROVED)\n    {\n        for (uint i = 0; i < loans.length; i++) {\n            if (loans[i].id == _loanId) {\n                loans[i].state = LoanState.PAID_TO_INSURANCE;\n                break;\n            }\n        }\n    }\n    \n    function confirmTokenTrasferToBroker(uint _loanId) public isAdmin() isValidLoan(_loanId) isLoanIn(_loanId, LoanState.PAID_TO_INSURANCE)\n    {\n        for (uint i = 0; i < loans.length; i++) {\n            if (loans[i].id == _loanId) {\n                loans[i].state = LoanState.PAID_TO_BROKER;\n                break;\n            }\n        }\n    }\n    \n    \n    function confirmTokenTrasferToBorrower(uint _loanId) public isAdmin() isValidLoan(_loanId) isLoanIn(_loanId, LoanState.PAID_TO_BROKER)\n    {\n        for (uint i = 0; i < loans.length; i++) {\n            if (loans[i].id == _loanId) {\n                loans[i].state = LoanState.ONGOING;\n                break;\n            }\n        }\n    }\n    \n    function closeLoan(uint _loanId) public isAdmin() isValidLoan(_loanId) isLoanIn(_loanId, LoanState.ONGOING)\n    {\n        for (uint i = 0; i < loans.length; i++) {\n            if (loans[i].id == _loanId) {\n                loans[i].state = LoanState.CLOSE;\n                break;\n            }\n        }\n    }\n    \n    function markAsDefaulted(uint _loanId) public isAdmin() isValidLoan(_loanId) isLoanIn(_loanId, LoanState.ONGOING)\n    {\n        for (uint i = 0; i < loans.length; i++) {\n            if (loans[i].id == _loanId) {\n                loans[i].state = LoanState.DEFAULT;\n                break;\n            }\n        }\n    }\n    \n    function requestClaim(uint _loanId) public isAdmin() isValidLoan(_loanId) isLoanIn(_loanId, LoanState.DEFAULT)\n    {\n        for (uint i = 0; i < loans.length; i++) {\n            if (loans[i].id == _loanId) {\n                loans[i].state = LoanState.CLAIM_REQUESTED;\n                break;\n            }\n        }\n    }\n    \n    function confirmRecivingOfClaim(uint _loanId) public isAdmin() isValidLoan(_loanId) isLoanIn(_loanId, LoanState.CLAIM_REQUESTED)\n    {\n        for (uint i = 0; i < loans.length; i++) {\n            if (loans[i].id == _loanId) {\n                loans[i].state = LoanState.CLAIMED;\n                break;\n            }\n        }\n    }\n    \n    function viewLoan(uint _loanId) public view returns(Loan memory loan)\n    {\n        for (uint i = 0; i < loans.length; i++) {\n            if (loans[i].id == _loanId) {\n                return (loans[i]);\n            }\n        }\n    }\n    \n    function getLoans() public view returns(Loan [] memory)\n    {\n        return loans;\n    }  \n    \n    //TODO - View broker's loans\n    //TODO - modify applied loans\n}",
  "sourcePath": "/Users/hozhenghan/Desktop/CI6236 projects/level2/microfinance/blockchain/contracts/BankLoan.sol",
  "compiler": {
    "name": "solc",
    "version": "0.8.1+commit.df193b15.Emscripten.clang"
  },
  "schemaVersion": "3.4.6",
  "updatedAt": "2022-03-25T11:09:40.914Z",
  "networkType": "ethereum",
  "devdoc": {
    "kind": "dev",
    "methods": {},
    "version": 1
  },
  "userdoc": {
    "kind": "user",
    "methods": {},
    "version": 1
  }
}