{
  "contractName": "InsurancePolicy",
  "abi": [
    {
      "inputs": [
        {
          "internalType": "address",
          "name": "_identitySC",
          "type": "address"
        }
      ],
      "stateMutability": "nonpayable",
      "type": "constructor"
    },
    {
      "anonymous": false,
      "inputs": [
        {
          "indexed": false,
          "internalType": "uint256",
          "name": "id",
          "type": "uint256"
        },
        {
          "indexed": false,
          "internalType": "uint256",
          "name": "amount",
          "type": "uint256"
        },
        {
          "indexed": false,
          "internalType": "uint256",
          "name": "months",
          "type": "uint256"
        },
        {
          "indexed": false,
          "internalType": "uint256",
          "name": "payment",
          "type": "uint256"
        },
        {
          "indexed": false,
          "internalType": "string",
          "name": "planId",
          "type": "string"
        },
        {
          "indexed": false,
          "internalType": "uint256",
          "name": "loanId",
          "type": "uint256"
        },
        {
          "indexed": false,
          "internalType": "enum InsurancePolicy.InsuranceState",
          "name": "state",
          "type": "uint8"
        },
        {
          "indexed": false,
          "internalType": "address",
          "name": "broker",
          "type": "address"
        },
        {
          "indexed": false,
          "internalType": "address",
          "name": "borrower",
          "type": "address"
        },
        {
          "indexed": false,
          "internalType": "bool",
          "name": "insuranceApprove",
          "type": "bool"
        },
        {
          "indexed": false,
          "internalType": "bool",
          "name": "isBorrowerSigned",
          "type": "bool"
        }
      ],
      "name": "insurancePolicyRequest",
      "type": "event"
    },
    {
      "inputs": [
        {
          "internalType": "uint256",
          "name": "_amount",
          "type": "uint256"
        },
        {
          "internalType": "uint256",
          "name": "_months",
          "type": "uint256"
        },
        {
          "internalType": "uint256",
          "name": "_payment",
          "type": "uint256"
        },
        {
          "internalType": "string",
          "name": "_planId",
          "type": "string"
        },
        {
          "internalType": "uint256",
          "name": "_loanId",
          "type": "uint256"
        },
        {
          "internalType": "address",
          "name": "_borrower",
          "type": "address"
        }
      ],
      "name": "applyInsurance",
      "outputs": [],
      "stateMutability": "nonpayable",
      "type": "function"
    },
    {
      "inputs": [
        {
          "internalType": "uint256",
          "name": "_policyId",
          "type": "uint256"
        }
      ],
      "name": "signInsurancePolicy",
      "outputs": [],
      "stateMutability": "nonpayable",
      "type": "function"
    },
    {
      "inputs": [
        {
          "internalType": "uint256",
          "name": "_policyId",
          "type": "uint256"
        }
      ],
      "name": "approveInsurancePolicy",
      "outputs": [],
      "stateMutability": "nonpayable",
      "type": "function"
    },
    {
      "inputs": [
        {
          "internalType": "uint256",
          "name": "_policyId",
          "type": "uint256"
        }
      ],
      "name": "rejectInsurancePolicy",
      "outputs": [],
      "stateMutability": "nonpayable",
      "type": "function"
    },
    {
      "inputs": [
        {
          "internalType": "uint256",
          "name": "_policyId",
          "type": "uint256"
        }
      ],
      "name": "confirmPaymentFromBank",
      "outputs": [],
      "stateMutability": "nonpayable",
      "type": "function"
    },
    {
      "inputs": [
        {
          "internalType": "uint256",
          "name": "_policyId",
          "type": "uint256"
        }
      ],
      "name": "closePolicy",
      "outputs": [],
      "stateMutability": "nonpayable",
      "type": "function"
    },
    {
      "inputs": [
        {
          "internalType": "uint256",
          "name": "_policyId",
          "type": "uint256"
        }
      ],
      "name": "requestClaim",
      "outputs": [],
      "stateMutability": "nonpayable",
      "type": "function"
    },
    {
      "inputs": [
        {
          "internalType": "uint256",
          "name": "_policyId",
          "type": "uint256"
        }
      ],
      "name": "rejectClaim",
      "outputs": [],
      "stateMutability": "nonpayable",
      "type": "function"
    },
    {
      "inputs": [
        {
          "internalType": "uint256",
          "name": "_policyId",
          "type": "uint256"
        }
      ],
      "name": "approveClaim",
      "outputs": [],
      "stateMutability": "nonpayable",
      "type": "function"
    },
    {
      "inputs": [
        {
          "internalType": "uint256",
          "name": "_policyId",
          "type": "uint256"
        }
      ],
      "name": "confirmClaim",
      "outputs": [],
      "stateMutability": "nonpayable",
      "type": "function"
    },
    {
      "inputs": [
        {
          "internalType": "uint256",
          "name": "_policyId",
          "type": "uint256"
        }
      ],
      "name": "viewInsurancePolicy",
      "outputs": [
        {
          "components": [
            {
              "internalType": "uint256",
              "name": "id",
              "type": "uint256"
            },
            {
              "internalType": "uint256",
              "name": "amount",
              "type": "uint256"
            },
            {
              "internalType": "uint256",
              "name": "months",
              "type": "uint256"
            },
            {
              "internalType": "uint256",
              "name": "payment",
              "type": "uint256"
            },
            {
              "internalType": "string",
              "name": "planId",
              "type": "string"
            },
            {
              "internalType": "uint256",
              "name": "loanId",
              "type": "uint256"
            },
            {
              "internalType": "enum InsurancePolicy.InsuranceState",
              "name": "state",
              "type": "uint8"
            },
            {
              "internalType": "address",
              "name": "broker",
              "type": "address"
            },
            {
              "internalType": "address",
              "name": "borrower",
              "type": "address"
            },
            {
              "internalType": "bool",
              "name": "insuranceApprove",
              "type": "bool"
            },
            {
              "internalType": "bool",
              "name": "isBorrowerSigned",
              "type": "bool"
            }
          ],
          "internalType": "struct InsurancePolicy.Policy",
          "name": "policy",
          "type": "tuple"
        }
      ],
      "stateMutability": "view",
      "type": "function",
      "constant": true
    },
    {
      "inputs": [],
      "name": "getAllPolicies",
      "outputs": [
        {
          "components": [
            {
              "internalType": "uint256",
              "name": "id",
              "type": "uint256"
            },
            {
              "internalType": "uint256",
              "name": "amount",
              "type": "uint256"
            },
            {
              "internalType": "uint256",
              "name": "months",
              "type": "uint256"
            },
            {
              "internalType": "uint256",
              "name": "payment",
              "type": "uint256"
            },
            {
              "internalType": "string",
              "name": "planId",
              "type": "string"
            },
            {
              "internalType": "uint256",
              "name": "loanId",
              "type": "uint256"
            },
            {
              "internalType": "enum InsurancePolicy.InsuranceState",
              "name": "state",
              "type": "uint8"
            },
            {
              "internalType": "address",
              "name": "broker",
              "type": "address"
            },
            {
              "internalType": "address",
              "name": "borrower",
              "type": "address"
            },
            {
              "internalType": "bool",
              "name": "insuranceApprove",
              "type": "bool"
            },
            {
              "internalType": "bool",
              "name": "isBorrowerSigned",
              "type": "bool"
            }
          ],
          "internalType": "struct InsurancePolicy.Policy[]",
          "name": "",
          "type": "tuple[]"
        }
      ],
      "stateMutability": "view",
      "type": "function",
      "constant": true
    }
  ],
  "bytecode": "0x60806040523480156200001157600080fd5b5060405162003bf938038062003bf98339818101604052810190620000379190620000d6565b336000806101000a81548173ffffffffffffffffffffffffffffffffffffffff021916908373ffffffffffffffffffffffffffffffffffffffff16021790555080600160006101000a81548173ffffffffffffffffffffffffffffffffffffffff021916908373ffffffffffffffffffffffffffffffffffffffff1602179055505062000150565b600081519050620000d08162000136565b92915050565b600060208284031215620000e957600080fd5b6000620000f984828501620000bf565b91505092915050565b60006200010f8262000116565b9050919050565b600073ffffffffffffffffffffffffffffffffffffffff82169050919050565b620001418162000102565b81146200014d57600080fd5b50565b613a9980620001606000396000f3fe608060405234801561001057600080fd5b50600436106100b45760003560e01c8063895ce77411610071578063895ce77414610177578063a377610d14610193578063abd50bdf146101af578063d838e644146101cb578063e00b288a146101e7578063ff7f289d14610203576100b4565b806320341101146100b95780632b0e4440146100d557806342139e0c146100f1578063433c6f4d1461010d578063457e55211461013d57806346e301351461015b575b600080fd5b6100d360048036038101906100ce9190613060565b61021f565b005b6100ef60048036038101906100ea9190613060565b610582565b005b61010b60048036038101906101069190613060565b6108e5565b005b61012760048036038101906101229190613060565b610d8a565b6040516101349190613581565b60405180910390f35b610145611126565b60405161015291906134ff565b60405180910390f35b61017560048036038101906101709190613060565b6113b3565b005b610191600480360381019061018c9190613060565b611716565b005b6101ad60048036038101906101a89190613060565b611a79565b005b6101c960048036038101906101c49190613089565b611ddc565b005b6101e560048036038101906101e09190613060565b6122a7565b005b61020160048036038101906101fc9190613060565b61266d565b005b61021d60048036038101906102189190613060565b612a64565b005b60008054906101000a900473ffffffffffffffffffffffffffffffffffffffff1673ffffffffffffffffffffffffffffffffffffffff163373ffffffffffffffffffffffffffffffffffffffff161461027757600080fd5b806000805b6002805490508110156102f85782600282815481106102c4577f4e487b7100000000000000000000000000000000000000000000000000000000600052603260045260246000fd5b90600052602060002090600802016000015414156102e557600191506102f8565b80806102f090613879565b91505061027c565b508061030357600080fd5b8260056000805b600280549050811015610459578360028281548110610352577f4e487b7100000000000000000000000000000000000000000000000000000000600052603260045260246000fd5b90600052602060002090600802016000015414801561043857508260098111156103a5577f4e487b7100000000000000000000000000000000000000000000000000000000600052602160045260246000fd5b600282815481106103df577f4e487b7100000000000000000000000000000000000000000000000000000000600052603260045260246000fd5b906000526020600020906008020160060160009054906101000a900460ff166009811115610436577f4e487b7100000000000000000000000000000000000000000000000000000000600052602160045260246000fd5b145b156104465760019150610459565b808061045190613879565b91505061030a565b508061046457600080fd5b60005b6002805490508110156105795786600282815481106104af577f4e487b7100000000000000000000000000000000000000000000000000000000600052603260045260246000fd5b906000526020600020906008020160000154141561056657600760028281548110610503577f4e487b7100000000000000000000000000000000000000000000000000000000600052603260045260246000fd5b906000526020600020906008020160060160006101000a81548160ff0219169083600981111561055c577f4e487b7100000000000000000000000000000000000000000000000000000000600052602160045260246000fd5b0217905550610579565b808061057190613879565b915050610467565b50505050505050565b60008054906101000a900473ffffffffffffffffffffffffffffffffffffffff1673ffffffffffffffffffffffffffffffffffffffff163373ffffffffffffffffffffffffffffffffffffffff16146105da57600080fd5b806000805b60028054905081101561065b578260028281548110610627577f4e487b7100000000000000000000000000000000000000000000000000000000600052603260045260246000fd5b9060005260206000209060080201600001541415610648576001915061065b565b808061065390613879565b9150506105df565b508061066657600080fd5b8260046000805b6002805490508110156107bc5783600282815481106106b5577f4e487b7100000000000000000000000000000000000000000000000000000000600052603260045260246000fd5b90600052602060002090600802016000015414801561079b5750826009811115610708577f4e487b7100000000000000000000000000000000000000000000000000000000600052602160045260246000fd5b60028281548110610742577f4e487b7100000000000000000000000000000000000000000000000000000000600052603260045260246000fd5b906000526020600020906008020160060160009054906101000a900460ff166009811115610799577f4e487b7100000000000000000000000000000000000000000000000000000000600052602160045260246000fd5b145b156107a957600191506107bc565b80806107b490613879565b91505061066d565b50806107c757600080fd5b60005b6002805490508110156108dc578660028281548110610812577f4e487b7100000000000000000000000000000000000000000000000000000000600052603260045260246000fd5b90600052602060002090600802016000015414156108c957600960028281548110610866577f4e487b7100000000000000000000000000000000000000000000000000000000600052603260045260246000fd5b906000526020600020906008020160060160006101000a81548160ff021916908360098111156108bf577f4e487b7100000000000000000000000000000000000000000000000000000000600052602160045260246000fd5b02179055506108dc565b80806108d490613879565b9150506107ca565b50505050505050565b80336000805b600280549050811015610a09578360028281548110610933577f4e487b7100000000000000000000000000000000000000000000000000000000600052603260045260246000fd5b9060005260206000209060080201600001541480156109e857508273ffffffffffffffffffffffffffffffffffffffff166002828154811061099e577f4e487b7100000000000000000000000000000000000000000000000000000000600052603260045260246000fd5b906000526020600020906008020160070160009054906101000a900473ffffffffffffffffffffffffffffffffffffffff1673ffffffffffffffffffffffffffffffffffffffff16145b156109f65760019150610a09565b8080610a0190613879565b9150506108eb565b5080610a1457600080fd5b836000805b600280549050811015610a95578260028281548110610a61577f4e487b7100000000000000000000000000000000000000000000000000000000600052603260045260246000fd5b9060005260206000209060080201600001541415610a825760019150610a95565b8080610a8d90613879565b915050610a19565b5080610aa057600080fd5b856000806000905060005b600280549050811015610bfa578360028281548110610af3577f4e487b7100000000000000000000000000000000000000000000000000000000600052603260045260246000fd5b906000526020600020906008020160000154148015610bd95750826009811115610b46577f4e487b7100000000000000000000000000000000000000000000000000000000600052602160045260246000fd5b60028281548110610b80577f4e487b7100000000000000000000000000000000000000000000000000000000600052603260045260246000fd5b906000526020600020906008020160060160009054906101000a900460ff166009811115610bd7577f4e487b7100000000000000000000000000000000000000000000000000000000600052602160045260246000fd5b145b15610be75760019150610bfa565b8080610bf290613879565b915050610aab565b5080610c0557600080fd5b60005b600280549050811015610d7e578960028281548110610c50577f4e487b7100000000000000000000000000000000000000000000000000000000600052603260045260246000fd5b9060005260206000209060080201600001541415610d6b57600160028281548110610ca4577f4e487b7100000000000000000000000000000000000000000000000000000000600052603260045260246000fd5b906000526020600020906008020160070160156101000a81548160ff021916908315150217905550600160028281548110610d08577f4e487b7100000000000000000000000000000000000000000000000000000000600052603260045260246000fd5b906000526020600020906008020160060160006101000a81548160ff02191690836009811115610d61577f4e487b7100000000000000000000000000000000000000000000000000000000600052602160045260246000fd5b0217905550610d7e565b8080610d7690613879565b915050610c08565b50505050505050505050565b610d92612e2b565b816000805b600280549050811015610e13578260028281548110610ddf577f4e487b7100000000000000000000000000000000000000000000000000000000600052603260045260246000fd5b9060005260206000209060080201600001541415610e005760019150610e13565b8080610e0b90613879565b915050610d97565b5080610e1e57600080fd5b60005b60028054905081101561111d578460028281548110610e69577f4e487b7100000000000000000000000000000000000000000000000000000000600052603260045260246000fd5b906000526020600020906008020160000154141561110a5760028181548110610ebb577f4e487b7100000000000000000000000000000000000000000000000000000000600052603260045260246000fd5b90600052602060002090600802016040518061016001604052908160008201548152602001600182015481526020016002820154815260200160038201548152602001600482018054610f0d90613816565b80601f0160208091040260200160405190810160405280929190818152602001828054610f3990613816565b8015610f865780601f10610f5b57610100808354040283529160200191610f86565b820191906000526020600020905b815481529060010190602001808311610f6957829003601f168201915b50505050508152602001600582015481526020016006820160009054906101000a900460ff166009811115610fe4577f4e487b7100000000000000000000000000000000000000000000000000000000600052602160045260246000fd5b600981111561101c577f4e487b7100000000000000000000000000000000000000000000000000000000600052602160045260246000fd5b81526020016006820160019054906101000a900473ffffffffffffffffffffffffffffffffffffffff1673ffffffffffffffffffffffffffffffffffffffff1673ffffffffffffffffffffffffffffffffffffffff1681526020016007820160009054906101000a900473ffffffffffffffffffffffffffffffffffffffff1673ffffffffffffffffffffffffffffffffffffffff1673ffffffffffffffffffffffffffffffffffffffff1681526020016007820160149054906101000a900460ff161515151581526020016007820160159054906101000a900460ff16151515158152505093505061111f565b808061111590613879565b915050610e21565b505b5050919050565b60606002805480602002602001604051908101604052809291908181526020016000905b828210156113aa578382906000526020600020906008020160405180610160016040529081600082015481526020016001820154815260200160028201548152602001600382015481526020016004820180546111a690613816565b80601f01602080910402602001604051908101604052809291908181526020018280546111d290613816565b801561121f5780601f106111f45761010080835404028352916020019161121f565b820191906000526020600020905b81548152906001019060200180831161120257829003601f168201915b50505050508152602001600582015481526020016006820160009054906101000a900460ff16600981111561127d577f4e487b7100000000000000000000000000000000000000000000000000000000600052602160045260246000fd5b60098111156112b5577f4e487b7100000000000000000000000000000000000000000000000000000000600052602160045260246000fd5b81526020016006820160019054906101000a900473ffffffffffffffffffffffffffffffffffffffff1673ffffffffffffffffffffffffffffffffffffffff1673ffffffffffffffffffffffffffffffffffffffff1681526020016007820160009054906101000a900473ffffffffffffffffffffffffffffffffffffffff1673ffffffffffffffffffffffffffffffffffffffff1673ffffffffffffffffffffffffffffffffffffffff1681526020016007820160149054906101000a900460ff161515151581526020016007820160159054906101000a900460ff1615151515815250508152602001906001019061114a565b50505050905090565b60008054906101000a900473ffffffffffffffffffffffffffffffffffffffff1673ffffffffffffffffffffffffffffffffffffffff163373ffffffffffffffffffffffffffffffffffffffff161461140b57600080fd5b806000805b60028054905081101561148c578260028281548110611458577f4e487b7100000000000000000000000000000000000000000000000000000000600052603260045260246000fd5b9060005260206000209060080201600001541415611479576001915061148c565b808061148490613879565b915050611410565b508061149757600080fd5b8260056000805b6002805490508110156115ed5783600282815481106114e6577f4e487b7100000000000000000000000000000000000000000000000000000000600052603260045260246000fd5b9060005260206000209060080201600001541480156115cc5750826009811115611539577f4e487b7100000000000000000000000000000000000000000000000000000000600052602160045260246000fd5b60028281548110611573577f4e487b7100000000000000000000000000000000000000000000000000000000600052603260045260246000fd5b906000526020600020906008020160060160009054906101000a900460ff1660098111156115ca577f4e487b7100000000000000000000000000000000000000000000000000000000600052602160045260246000fd5b145b156115da57600191506115ed565b80806115e590613879565b91505061149e565b50806115f857600080fd5b60005b60028054905081101561170d578660028281548110611643577f4e487b7100000000000000000000000000000000000000000000000000000000600052603260045260246000fd5b90600052602060002090600802016000015414156116fa57600660028281548110611697577f4e487b7100000000000000000000000000000000000000000000000000000000600052603260045260246000fd5b906000526020600020906008020160060160006101000a81548160ff021916908360098111156116f0577f4e487b7100000000000000000000000000000000000000000000000000000000600052602160045260246000fd5b021790555061170d565b808061170590613879565b9150506115fb565b50505050505050565b60008054906101000a900473ffffffffffffffffffffffffffffffffffffffff1673ffffffffffffffffffffffffffffffffffffffff163373ffffffffffffffffffffffffffffffffffffffff161461176e57600080fd5b806000805b6002805490508110156117ef5782600282815481106117bb577f4e487b7100000000000000000000000000000000000000000000000000000000600052603260045260246000fd5b90600052602060002090600802016000015414156117dc57600191506117ef565b80806117e790613879565b915050611773565b50806117fa57600080fd5b8260026000805b600280549050811015611950578360028281548110611849577f4e487b7100000000000000000000000000000000000000000000000000000000600052603260045260246000fd5b90600052602060002090600802016000015414801561192f575082600981111561189c577f4e487b7100000000000000000000000000000000000000000000000000000000600052602160045260246000fd5b600282815481106118d6577f4e487b7100000000000000000000000000000000000000000000000000000000600052603260045260246000fd5b906000526020600020906008020160060160009054906101000a900460ff16600981111561192d577f4e487b7100000000000000000000000000000000000000000000000000000000600052602160045260246000fd5b145b1561193d5760019150611950565b808061194890613879565b915050611801565b508061195b57600080fd5b60005b600280549050811015611a705786600282815481106119a6577f4e487b7100000000000000000000000000000000000000000000000000000000600052603260045260246000fd5b9060005260206000209060080201600001541415611a5d576004600282815481106119fa577f4e487b7100000000000000000000000000000000000000000000000000000000600052603260045260246000fd5b906000526020600020906008020160060160006101000a81548160ff02191690836009811115611a53577f4e487b7100000000000000000000000000000000000000000000000000000000600052602160045260246000fd5b0217905550611a70565b8080611a6890613879565b91505061195e565b50505050505050565b60008054906101000a900473ffffffffffffffffffffffffffffffffffffffff1673ffffffffffffffffffffffffffffffffffffffff163373ffffffffffffffffffffffffffffffffffffffff1614611ad157600080fd5b806000805b600280549050811015611b52578260028281548110611b1e577f4e487b7100000000000000000000000000000000000000000000000000000000600052603260045260246000fd5b9060005260206000209060080201600001541415611b3f5760019150611b52565b8080611b4a90613879565b915050611ad6565b5080611b5d57600080fd5b8260066000805b600280549050811015611cb3578360028281548110611bac577f4e487b7100000000000000000000000000000000000000000000000000000000600052603260045260246000fd5b906000526020600020906008020160000154148015611c925750826009811115611bff577f4e487b7100000000000000000000000000000000000000000000000000000000600052602160045260246000fd5b60028281548110611c39577f4e487b7100000000000000000000000000000000000000000000000000000000600052603260045260246000fd5b906000526020600020906008020160060160009054906101000a900460ff166009811115611c90577f4e487b7100000000000000000000000000000000000000000000000000000000600052602160045260246000fd5b145b15611ca05760019150611cb3565b8080611cab90613879565b915050611b64565b5080611cbe57600080fd5b60005b600280549050811015611dd3578660028281548110611d09577f4e487b7100000000000000000000000000000000000000000000000000000000600052603260045260246000fd5b9060005260206000209060080201600001541415611dc057600860028281548110611d5d577f4e487b7100000000000000000000000000000000000000000000000000000000600052603260045260246000fd5b906000526020600020906008020160060160006101000a81548160ff02191690836009811115611db6577f4e487b7100000000000000000000000000000000000000000000000000000000600052602160045260246000fd5b0217905550611dd3565b8080611dcb90613879565b915050611cc1565b50505050505050565b33600160009054906101000a900473ffffffffffffffffffffffffffffffffffffffff1673ffffffffffffffffffffffffffffffffffffffff16633314168c826040518263ffffffff1660e01b8152600401611e3891906134e4565b60206040518083038186803b158015611e5057600080fd5b505afa158015611e64573d6000803e3d6000fd5b505050506040513d601f19601f82011682018060405250810190611e889190613037565b611ec7576040517f08c379a0000000000000000000000000000000000000000000000000000000008152600401611ebe90613561565b60405180910390fd5b81600160009054906101000a900473ffffffffffffffffffffffffffffffffffffffff1673ffffffffffffffffffffffffffffffffffffffff1663e701c350826040518263ffffffff1660e01b8152600401611f2391906134e4565b60206040518083038186803b158015611f3b57600080fd5b505afa158015611f4f573d6000803e3d6000fd5b505050506040513d601f19601f82011682018060405250810190611f739190613037565b611fb2576040517f08c379a0000000000000000000000000000000000000000000000000000000008152600401611fa990613521565b60405180910390fd5b60006040518061016001604052806001600280549050611fd29190613711565b81526020018a81526020018981526020018881526020018781526020018681526020016000600981111561202f577f4e487b7100000000000000000000000000000000000000000000000000000000600052602160045260246000fd5b81526020013373ffffffffffffffffffffffffffffffffffffffff1681526020018573ffffffffffffffffffffffffffffffffffffffff16815260200160001515815260200160001515815250905060028190806001815401808255809150506001900390600052602060002090600802016000909190919091506000820151816000015560208201518160010155604082015181600201556060820151816003015560808201518160040190805190602001906120ee929190612eed565b5060a0820151816005015560c08201518160060160006101000a81548160ff0219169083600981111561214a577f4e487b7100000000000000000000000000000000000000000000000000000000600052602160045260246000fd5b021790555060e08201518160060160016101000a81548173ffffffffffffffffffffffffffffffffffffffff021916908373ffffffffffffffffffffffffffffffffffffffff1602179055506101008201518160070160006101000a81548173ffffffffffffffffffffffffffffffffffffffff021916908373ffffffffffffffffffffffffffffffffffffffff1602179055506101208201518160070160146101000a81548160ff0219169083151502179055506101408201518160070160156101000a81548160ff02191690831515021790555050507fba1c6419c78af3a4d357e7e2685541661d87f407ef31fca8f0547d2ad7235cc0816000015182602001518360400151846060015185608001518660a001518760c001518860e001518961010001518a61012001518b61014001516040516122949b9a999897969594939291906135a3565b60405180910390a1505050505050505050565b60008054906101000a900473ffffffffffffffffffffffffffffffffffffffff1673ffffffffffffffffffffffffffffffffffffffff163373ffffffffffffffffffffffffffffffffffffffff16146122ff57600080fd5b806000805b60028054905081101561238057826002828154811061234c577f4e487b7100000000000000000000000000000000000000000000000000000000600052603260045260246000fd5b906000526020600020906008020160000154141561236d5760019150612380565b808061237890613879565b915050612304565b508061238b57600080fd5b8260016000805b6002805490508110156124e15783600282815481106123da577f4e487b7100000000000000000000000000000000000000000000000000000000600052603260045260246000fd5b9060005260206000209060080201600001541480156124c0575082600981111561242d577f4e487b7100000000000000000000000000000000000000000000000000000000600052602160045260246000fd5b60028281548110612467577f4e487b7100000000000000000000000000000000000000000000000000000000600052603260045260246000fd5b906000526020600020906008020160060160009054906101000a900460ff1660098111156124be577f4e487b7100000000000000000000000000000000000000000000000000000000600052602160045260246000fd5b145b156124ce57600191506124e1565b80806124d990613879565b915050612392565b50806124ec57600080fd5b60005b600280549050811015612664578660028281548110612537577f4e487b7100000000000000000000000000000000000000000000000000000000600052603260045260246000fd5b90600052602060002090600802016000015414156126515760016002828154811061258b577f4e487b7100000000000000000000000000000000000000000000000000000000600052603260045260246000fd5b906000526020600020906008020160070160146101000a81548160ff02191690831515021790555060028082815481106125ee577f4e487b7100000000000000000000000000000000000000000000000000000000600052603260045260246000fd5b906000526020600020906008020160060160006101000a81548160ff02191690836009811115612647577f4e487b7100000000000000000000000000000000000000000000000000000000600052602160045260246000fd5b0217905550612664565b808061265c90613879565b9150506124ef565b50505050505050565b33600160009054906101000a900473ffffffffffffffffffffffffffffffffffffffff1673ffffffffffffffffffffffffffffffffffffffff166326f8f8e7826040518263ffffffff1660e01b81526004016126c991906134e4565b60206040518083038186803b1580156126e157600080fd5b505afa1580156126f5573d6000803e3d6000fd5b505050506040513d601f19601f820116820180604052508101906127199190613037565b612758576040517f08c379a000000000000000000000000000000000000000000000000000000000815260040161274f90613541565b60405180910390fd5b816000805b6002805490508110156127d95782600282815481106127a5577f4e487b7100000000000000000000000000000000000000000000000000000000600052603260045260246000fd5b90600052602060002090600802016000015414156127c657600191506127d9565b80806127d190613879565b91505061275d565b50806127e457600080fd5b8360046000805b60028054905081101561293a578360028281548110612833577f4e487b7100000000000000000000000000000000000000000000000000000000600052603260045260246000fd5b9060005260206000209060080201600001541480156129195750826009811115612886577f4e487b7100000000000000000000000000000000000000000000000000000000600052602160045260246000fd5b600282815481106128c0577f4e487b7100000000000000000000000000000000000000000000000000000000600052603260045260246000fd5b906000526020600020906008020160060160009054906101000a900460ff166009811115612917577f4e487b7100000000000000000000000000000000000000000000000000000000600052602160045260246000fd5b145b15612927576001915061293a565b808061293290613879565b9150506127eb565b508061294557600080fd5b60005b600280549050811015612a5a578760028281548110612990577f4e487b7100000000000000000000000000000000000000000000000000000000600052603260045260246000fd5b9060005260206000209060080201600001541415612a47576005600282815481106129e4577f4e487b7100000000000000000000000000000000000000000000000000000000600052603260045260246000fd5b906000526020600020906008020160060160006101000a81548160ff02191690836009811115612a3d577f4e487b7100000000000000000000000000000000000000000000000000000000600052602160045260246000fd5b0217905550612a5a565b8080612a5290613879565b915050612948565b5050505050505050565b60008054906101000a900473ffffffffffffffffffffffffffffffffffffffff1673ffffffffffffffffffffffffffffffffffffffff163373ffffffffffffffffffffffffffffffffffffffff1614612abc57600080fd5b806000805b600280549050811015612b3d578260028281548110612b09577f4e487b7100000000000000000000000000000000000000000000000000000000600052603260045260246000fd5b9060005260206000209060080201600001541415612b2a5760019150612b3d565b8080612b3590613879565b915050612ac1565b5080612b4857600080fd5b8260016000805b600280549050811015612c9e578360028281548110612b97577f4e487b7100000000000000000000000000000000000000000000000000000000600052603260045260246000fd5b906000526020600020906008020160000154148015612c7d5750826009811115612bea577f4e487b7100000000000000000000000000000000000000000000000000000000600052602160045260246000fd5b60028281548110612c24577f4e487b7100000000000000000000000000000000000000000000000000000000600052603260045260246000fd5b906000526020600020906008020160060160009054906101000a900460ff166009811115612c7b577f4e487b7100000000000000000000000000000000000000000000000000000000600052602160045260246000fd5b145b15612c8b5760019150612c9e565b8080612c9690613879565b915050612b4f565b5080612ca957600080fd5b60005b600280549050811015612e22578660028281548110612cf4577f4e487b7100000000000000000000000000000000000000000000000000000000600052603260045260246000fd5b9060005260206000209060080201600001541415612e0f57600060028281548110612d48577f4e487b7100000000000000000000000000000000000000000000000000000000600052603260045260246000fd5b906000526020600020906008020160070160146101000a81548160ff021916908315150217905550600360028281548110612dac577f4e487b7100000000000000000000000000000000000000000000000000000000600052603260045260246000fd5b906000526020600020906008020160060160006101000a81548160ff02191690836009811115612e05577f4e487b7100000000000000000000000000000000000000000000000000000000600052602160045260246000fd5b0217905550612e22565b8080612e1a90613879565b915050612cac565b50505050505050565b60405180610160016040528060008152602001600081526020016000815260200160008152602001606081526020016000815260200160006009811115612e9b577f4e487b7100000000000000000000000000000000000000000000000000000000600052602160045260246000fd5b8152602001600073ffffffffffffffffffffffffffffffffffffffff168152602001600073ffffffffffffffffffffffffffffffffffffffff1681526020016000151581526020016000151581525090565b828054612ef990613816565b90600052602060002090601f016020900481019282612f1b5760008555612f62565b82601f10612f3457805160ff1916838001178555612f62565b82800160010185558215612f62579182015b82811115612f61578251825591602001919060010190612f46565b5b509050612f6f9190612f73565b5090565b5b80821115612f8c576000816000905550600101612f74565b5090565b6000612fa3612f9e8461367a565b613655565b905082815260208101848484011115612fbb57600080fd5b612fc68482856137d4565b509392505050565b600081359050612fdd81613a1e565b92915050565b600081519050612ff281613a35565b92915050565b600082601f83011261300957600080fd5b8135613019848260208601612f90565b91505092915050565b60008135905061303181613a4c565b92915050565b60006020828403121561304957600080fd5b600061305784828501612fe3565b91505092915050565b60006020828403121561307257600080fd5b600061308084828501613022565b91505092915050565b60008060008060008060c087890312156130a257600080fd5b60006130b089828a01613022565b96505060206130c189828a01613022565b95505060406130d289828a01613022565b945050606087013567ffffffffffffffff8111156130ef57600080fd5b6130fb89828a01612ff8565b935050608061310c89828a01613022565b92505060a061311d89828a01612fce565b9150509295509295509295565b600061313683836132e8565b905092915050565b61314781613767565b82525050565b61315681613767565b82525050565b6000613167826136bb565b61317181856136de565b935083602082028501613183856136ab565b8060005b858110156131bf57848403895281516131a0858261312a565b94506131ab836136d1565b925060208a01995050600181019050613187565b50829750879550505050505092915050565b6131da81613779565b82525050565b6131e981613779565b82525050565b6131f8816137c2565b82525050565b613207816137c2565b82525050565b6000613218826136c6565b61322281856136ef565b93506132328185602086016137e3565b61323b8161397e565b840191505092915050565b6000613251826136c6565b61325b8185613700565b935061326b8185602086016137e3565b6132748161397e565b840191505092915050565b600061328c600d83613700565b91506132978261398f565b602082019050919050565b60006132af600983613700565b91506132ba826139b8565b602082019050919050565b60006132d2600b83613700565b91506132dd826139e1565b602082019050919050565b60006101608301600083015161330160008601826134c6565b50602083015161331460208601826134c6565b50604083015161332760408601826134c6565b50606083015161333a60608601826134c6565b5060808301518482036080860152613352828261320d565b91505060a083015161336760a08601826134c6565b5060c083015161337a60c08601826131ef565b5060e083015161338d60e086018261313e565b506101008301516133a261010086018261313e565b506101208301516133b76101208601826131d1565b506101408301516133cc6101408601826131d1565b508091505092915050565b6000610160830160008301516133f060008601826134c6565b50602083015161340360208601826134c6565b50604083015161341660408601826134c6565b50606083015161342960608601826134c6565b5060808301518482036080860152613441828261320d565b91505060a083015161345660a08601826134c6565b5060c083015161346960c08601826131ef565b5060e083015161347c60e086018261313e565b5061010083015161349161010086018261313e565b506101208301516134a66101208601826131d1565b506101408301516134bb6101408601826131d1565b508091505092915050565b6134cf816137b8565b82525050565b6134de816137b8565b82525050565b60006020820190506134f9600083018461314d565b92915050565b60006020820190508181036000830152613519818461315c565b905092915050565b6000602082019050818103600083015261353a8161327f565b9050919050565b6000602082019050818103600083015261355a816132a2565b9050919050565b6000602082019050818103600083015261357a816132c5565b9050919050565b6000602082019050818103600083015261359b81846133d7565b905092915050565b6000610160820190506135b9600083018e6134d5565b6135c6602083018d6134d5565b6135d3604083018c6134d5565b6135e0606083018b6134d5565b81810360808301526135f2818a613246565b905061360160a08301896134d5565b61360e60c08301886131fe565b61361b60e083018761314d565b61362961010083018661314d565b6136376101208301856131e0565b6136456101408301846131e0565b9c9b505050505050505050505050565b600061365f613670565b905061366b8282613848565b919050565b6000604051905090565b600067ffffffffffffffff8211156136955761369461394f565b5b61369e8261397e565b9050602081019050919050565b6000819050602082019050919050565b600081519050919050565b600081519050919050565b6000602082019050919050565b600082825260208201905092915050565b600082825260208201905092915050565b600082825260208201905092915050565b600061371c826137b8565b9150613727836137b8565b9250827fffffffffffffffffffffffffffffffffffffffffffffffffffffffffffffffff0382111561375c5761375b6138c2565b5b828201905092915050565b600061377282613798565b9050919050565b60008115159050919050565b600081905061379382613a0a565b919050565b600073ffffffffffffffffffffffffffffffffffffffff82169050919050565b6000819050919050565b60006137cd82613785565b9050919050565b82818337600083830152505050565b60005b838110156138015780820151818401526020810190506137e6565b83811115613810576000848401525b50505050565b6000600282049050600182168061382e57607f821691505b6020821081141561384257613841613920565b5b50919050565b6138518261397e565b810181811067ffffffffffffffff821117156138705761386f61394f565b5b80604052505050565b6000613884826137b8565b91507fffffffffffffffffffffffffffffffffffffffffffffffffffffffffffffffff8214156138b7576138b66138c2565b5b600182019050919050565b7f4e487b7100000000000000000000000000000000000000000000000000000000600052601160045260246000fd5b7f4e487b7100000000000000000000000000000000000000000000000000000000600052602160045260246000fd5b7f4e487b7100000000000000000000000000000000000000000000000000000000600052602260045260246000fd5b7f4e487b7100000000000000000000000000000000000000000000000000000000600052604160045260246000fd5b6000601f19601f8301169050919050565b7f426f72726f776572204f6e6c7900000000000000000000000000000000000000600082015250565b7f42616e6b204f6e6c790000000000000000000000000000000000000000000000600082015250565b7f42726f6b6572204f6e6c79000000000000000000000000000000000000000000600082015250565b600a8110613a1b57613a1a6138f1565b5b50565b613a2781613767565b8114613a3257600080fd5b50565b613a3e81613779565b8114613a4957600080fd5b50565b613a55816137b8565b8114613a6057600080fd5b5056fea2646970667358221220d9e3290e1d3a0c6e27d39d2ef8e4966d2d09a5f95dea1ba7434623dd88f2ab1364736f6c63430008010033",
  "immutableReferences": {},
  "source": "// SPDX-License-Identifier: GPL-3.0\npragma solidity >=0.7.0 <0.9.0;\n\nimport \"./UserIdentity.sol\";\n\ncontract InsurancePolicy{\n    \n    enum InsuranceState{\n        REQUESTED, \n        BORROWER_SIGNED,\n        APPROVED, \n        REJECTED, \n        ONGOING, \n        CLAIM_REQUESTED,\n        CLAIM_APPROVED,\n        CLAIM_REJECTED,\n        CLAIMED, \n        CLOSE \n    }\n    \n    struct Policy\n    {\n        uint id;\n        uint amount;\n        uint months;\n        uint payment;\n        string planId;\n        uint loanId;\n        InsuranceState state;\n        address broker;\n        address borrower;\n        bool insuranceApprove;\n        bool isBorrowerSigned;\n    }\n    \n    event insurancePolicyRequest(\n        uint id,\n        uint amount,\n        uint months,\n        uint payment,\n        string planId,\n        uint loanId,\n        InsuranceState state,\n        address broker,\n        address borrower,\n        bool insuranceApprove,\n        bool isBorrowerSigned\n    );\n    \n    address private admin;\n    UserIdentity identitySC;\n    Policy[] private policies;\n    \n    constructor (address _identitySC) {\n            admin = msg.sender;\n            identitySC = UserIdentity(_identitySC);\n    }\n    \n    modifier isAdmin()\n    {\n        require(msg.sender == admin);\n        _;\n    }\n    \n    modifier isBorrower(address _address)\n    {\n        require(identitySC.verifyIsBorrower(_address), 'Borrower Only');\n        _;\n    }\n\n    modifier isBroker(address _address)\n    {\n        require(identitySC.verifyIsBroker(_address), 'Broker Only');\n        _;\n    }\n    \n    modifier isBank(address _address)\n    {\n        require(identitySC.verifyIsBank(_address), 'Bank Only');\n        _;\n    }\n\n    modifier isValidInsurance(uint _insuranceId)\n    {\n        bool isValid = false;\n        for(uint i=0; i< policies.length; i++)\n        {\n            if(policies[i].id == _insuranceId)\n            {\n                isValid = true;\n                break;\n            }\n        }\n        require(isValid);\n        _;\n    }\n\n    modifier isInsuranceIn(uint _policyId, InsuranceState _state)\n    {\n        bool isValid = false;\n        for(uint i=0; i< policies.length; i++)\n        {\n            if(policies[i].id == _policyId && policies[i].state == _state)\n            {\n                isValid = true;\n                break;\n            }\n        }\n        require(isValid);\n        _;\n    }\n\n    modifier checkBorrower(uint _policyId, address _borrower){\n        bool isValid = false;\n        for(uint i=0; i< policies.length; i++)\n        {\n            if(policies[i].id == _policyId && policies[i].borrower == _borrower)\n            {\n                isValid = true;\n                break;\n            }\n        }\n        require(isValid);\n        _;\n    }\n    \n    function applyInsurance(uint _amount, uint _months, uint _payment, string memory _planId, uint _loanId, address _borrower)\n        public isBroker(msg.sender) isBorrower(_borrower)\n    {\n        Policy memory policy = Policy(policies.length + 1, _amount, _months, _payment, _planId, _loanId,\n        InsuranceState.REQUESTED, msg.sender, _borrower, false, false);\n        policies.push(policy);\n        \n        emit insurancePolicyRequest( policy.id, policy.amount, policy.months,  policy.payment, policy.planId,\n            policy.loanId, policy.state, policy.broker, policy.borrower, policy.insuranceApprove,\n            policy.isBorrowerSigned\n        );\n    }\n    \n    function signInsurancePolicy(uint _policyId) \n        public checkBorrower(_policyId, msg.sender) isValidInsurance(_policyId) isInsuranceIn(_policyId, InsuranceState.REQUESTED)\n    {\n        for (uint i = 0; i < policies.length; i++) {\n            if (policies[i].id == _policyId) {\n                policies[i].isBorrowerSigned = true; \n                policies[i].state = InsuranceState.BORROWER_SIGNED;\n                break;\n            }\n        }\n    }\n    \n    function approveInsurancePolicy(uint _policyId) \n        public isAdmin() isValidInsurance(_policyId) isInsuranceIn(_policyId, InsuranceState.BORROWER_SIGNED)\n    {\n        for (uint i = 0; i < policies.length; i++) {\n            if (policies[i].id == _policyId) {\n                policies[i].insuranceApprove = true;\n                policies[i].state = InsuranceState.APPROVED;\n                break;\n            }\n        }\n    }\n    \n    function rejectInsurancePolicy(uint _policyId) \n        public isAdmin() isValidInsurance(_policyId) isInsuranceIn(_policyId, InsuranceState.BORROWER_SIGNED)\n    {\n        for (uint i = 0; i < policies.length; i++) {\n            if (policies[i].id == _policyId) {\n                policies[i].insuranceApprove = false;\n                policies[i].state = InsuranceState.REJECTED;\n                break;\n            }\n        }\n    }\n    \n    function confirmPaymentFromBank(uint _policyId) \n        public isAdmin() isValidInsurance(_policyId) isInsuranceIn(_policyId, InsuranceState.APPROVED)\n    {\n        for (uint i = 0; i < policies.length; i++) {\n            if (policies[i].id == _policyId) {\n                policies[i].state = InsuranceState.ONGOING;\n                break;\n            }\n        }\n    }\n    \n    function closePolicy(uint _policyId) \n        public isAdmin() isValidInsurance(_policyId) isInsuranceIn(_policyId, InsuranceState.ONGOING)\n    {\n        for (uint i = 0; i < policies.length; i++) {\n            if (policies[i].id == _policyId) {\n                policies[i].state = InsuranceState.CLOSE;\n                break;\n            }\n        }\n    }\n    \n    function requestClaim(uint _policyId) \n        public isBank(msg.sender) isValidInsurance(_policyId) isInsuranceIn(_policyId, InsuranceState.ONGOING)\n    {\n        for (uint i = 0; i < policies.length; i++) {\n            if (policies[i].id == _policyId) {\n                policies[i].state = InsuranceState.CLAIM_REQUESTED;\n                break;\n            }\n        }\n    }\n    \n    function rejectClaim(uint _policyId) \n        public isAdmin() isValidInsurance(_policyId) isInsuranceIn(_policyId, InsuranceState.CLAIM_REQUESTED)\n    {\n        for (uint i = 0; i < policies.length; i++) {\n            if (policies[i].id == _policyId) {\n                policies[i].state = InsuranceState.CLAIM_REJECTED;\n                break;\n            }\n        }\n    }\n    \n    function approveClaim(uint _policyId) \n        public isAdmin() isValidInsurance(_policyId) isInsuranceIn(_policyId, InsuranceState.CLAIM_REQUESTED)\n    {\n        for (uint i = 0; i < policies.length; i++) {\n            if (policies[i].id == _policyId) {\n                policies[i].state = InsuranceState.CLAIM_APPROVED;\n                break;\n            }\n        }\n    }\n    \n    function confirmClaim(uint _policyId) \n        public isAdmin() isValidInsurance(_policyId) isInsuranceIn(_policyId, InsuranceState.CLAIM_APPROVED)\n    {\n        for (uint i = 0; i < policies.length; i++) {\n            if (policies[i].id == _policyId) {\n                policies[i].state = InsuranceState.CLAIMED;\n                break;\n            }\n        }\n    }\n    \n    function viewInsurancePolicy(uint _policyId) public view isValidInsurance(_policyId) \n    returns(Policy memory policy)\n    {\n        for (uint i = 0; i < policies.length; i++) {\n            if (policies[i].id == _policyId) {\n                return policies[i];\n            }\n        }\n    }\n    \n    function getAllPolicies() public view returns(Policy [] memory)\n    {\n        return policies;\n    } \n    \n    //TODO - View broker's loans\n    //TODO - modify applied loans\n}",
  "sourcePath": "/Users/hozhenghan/Desktop/CI6236 projects/level2/microfinance/blockchain/contracts/InsurancePolicy.sol",
  "compiler": {
    "name": "solc",
    "version": "0.8.1+commit.df193b15.Emscripten.clang"
  },
  "schemaVersion": "3.4.6",
  "updatedAt": "2022-03-25T11:09:40.924Z",
  "networkType": "ethereum",
  "devdoc": {
    "kind": "dev",
    "methods": {},
    "version": 1
  },
  "userdoc": {
    "kind": "user",
    "methods": {},
    "version": 1
  }
}